:100670005E005A454E5445522031204E4F3D2000D9
:10068000000000000000000000000000000000006A
:10069000005E0000454E5445522032204E4F3D2012
:1006A000000000000000000000000000000000004A
:1006B00000005E001E4F50455241544F52203D20D5
:1006C000000000000000000000000000000000002A
:1006D0000000005E003C526573756C74203D200084
:1006E000000000000000000000000000000000000A
:0406F0000000000006
:10042B00E49000B8F0A3F0A3F0A3F0A3F0A3F0A323
:10043B00F0A3F012086A9000B8E0FEA3E0245AF58E
:10044B008274003EF583E0FF60131208F49000B94C
:10045B00E004F070E19000B8E004F080D91202AC37
:10046B009000C4EFF01207C59000C0EEF0A3EFF0C0
:10047B009000C4E0FF1208F41208FB9000BCE0FEF1
:10048B00A3E0241EF58274003EF583E0FF60131297
:10049B0008F49000BDE004F070E19000BCE004F0C3
:1004AB0080D91202AC9000C6EFF01208F41208FBD0
:1004BB009000BAE0FEA3E02400F58274003EF583C1
:1004CB00E0FF60131208F49000BBE004F070E190C1
:1004DB0000BAE004F080D91202AC9000C5EFF01224
:1004EB0007C59000C2EEF0A3EFF09000C5E0FF123D
:1004FB0008F41208FB9000BEE0FEA3E0243CF5825A
:10050B0074003EF583E0FF60131208F49000BFE027
:10051B0004F070E19000BEE004F080D99000C6E0DA
:10052B0024D6603824FD601D24FE604A24047064C8
:10053B009000C0E0FEA3E0FF9000C3E02FFD900011
:10054B00C2E03E80149000C2E0FEA3E0FFC3900027
:10055B00C1E09FFD9000C0E09EFC80329000C2E0A5
:10056B00FCA3E0FD9000C0E0FEA3E0FF1201F5ACA0
:10057B0006AD07EC80189000C2E0FCA3E0FD9000F4
:10058B00C0E0FEA3E0FF120207AC06AD07EC1201C0
:07059B000E1205A3E4FEFFB0
:0105A2002236
:1002AC00E49000C7F09000C7E0FF643070030204D4
:1002BC001BEF6431700302041BEF64327003020401
:1002CC001BEF6433700302041BEF643470030204ED
:1002DC001BEF6435700302041BEF643670030204D9
:1002EC001BEF6437700302041BEF643870030204C5
:1002FC001BEF6439700302041BEF642B70030204C0
:10030C001BEF642D700302041BEF643D70030204A9
:10031C001BEF6443700302041BEF642A7003020496
:10032C001BEF642F700302041BC290D291D292D2A5
:10033C0093209406209003742BF0209509209006AE
:10034C009000C7742DF02096092090069000C77479
:10035C002AF02097092090069000C7742FF0D290B5
:10036C00C291D292D2932094092091069000C77426
:10037C003DF02095092091069000C77433F020962B
:10038C00092091069000C77436F020970920910639
:10039C009000C77439F0D290D291C292D29320942B
:1003AC00092092069000C77430F02095092092061F
:1003BC009000C77432F02096092092069000C77402
:1003CC0035F02097092092069000C77438F0D2902F
:1003DC00D291D292C2932094092093069000C774B4
:1003EC0043F02095092093069000C77431F02096B5
:1003FC00092093069000C77434F03097030202B1C1
:10040C003093030202B19000C77437F00202B112AC
:0E041C0008F47FE87E0312089A9000C7E0FF04
:01042A0022AF
:1007C500EF24D0B40A00505B9007DB75F003A4C595
:1007D5008325F0C583730207F90207FB02080002AF
:1007E500080502080A02080F02081402081902087F
:1007F5001E020823802D7E007F01227E007F0222BB
:100805007E007F03227E007F04227E007F05227EFC
:10081500007F06227E007F07227E007F08227E0061
:070825007F0922E4FEFF221F
:0605A3009000C712024B9C
:1005A900E49000CBF0A3F0A3F0FFFE7D207C419006
:1005B90000C7E0F8A3E0F9A3E0FAA3E0FB12000307
:1005C9001201479000CEEEF0A3EFF09000C7E0FCD7
:1005D900A3E0FDA3E0FEA3E0FF1201479000D0EEE7
:1005E900F0A3EFF0C3EE64809480501C9000D0E03B
:1005F900FEA3E0FF7CFF7DFF1201F59000D0EEF035
:10060900A3EFF07F2D1208F49000D0E0FEA3E0FFE5
:100619007C007D0A1202079000CCEFF06007E0240D
:1006290030FF1208F49000D0A3E0FF9000CCE075F1
:10063900F00AA4FEC3EF9E9000CBF02430FF12080D
:10064900F47F2E1208F49000CEE0FEA3E0FF7C00B8
:100659007D0A120207ED2430FF9000CDF01208F454
:070669007F207E4E02089A7B
:1006F40060400078000A1F1F0E040000040E0E0E56
:100704001F0004001F151F1F0E0A1B000001031603
:100714001C08000001030F0F0F0F0301010305095B
:10072400090B1B18000E151B0E0E00000E11111FD5
:040734001B1B1B1F51
:070893001208ED7F147E0046
:10089A00E4FDFCC3ED9FEC9E5015E4FBFA0BBB0094
:0F08AA00010AEB64724A70F50DBD00010C80E489
:0108B900221C
:1008BA00A907ED24FF92A6D2A77F0A7E0012089A02
:0C08CA00AF018F807F0A12089AC2A7229B
:0708ED00C2A5E4FD0208BAF8
:0708F400C2A57D010208BA54
:0508FB007F010208ED81
:10086A007F381208937F041208937F101208937F2F
:10087A0008120893E4FF1208937F0C1208931208D7
:09088A00FB1208967F030208ED41
:1008D600EF7003ED8003ED244044809000D7F09044
:0708E60000D7E0FF0208ED5E
:0B082C009000D2EBF0A3EAF0A3E9F08B
:10083700E4A3F0A3F09000D2E0FBA3E0FAA3E0F971
:10084700A3E0FEA3E0F5828E831201C8FF601312B6
:1008570008F49000D6E004F070DB9000D5E004F0D7
:0208670080D33C
:01086900226C
:10000300EC4D6011E8497017ED33EC3304600DE4F7
:10001300FCFFFEFD22E933E8330470F80201B3125A
:10002300017E58046009E4CC24815006285009025B
:1000330001BD2840030201BAC0E0EB4A7044B98015
:1000430006D0E0FB0201A9EF4E701CBD8008EBFF58
:10005300EAFEE9FD80EBE98DF0A4FEE5F00200EC99
:10006300E9CDF9EAFEEBFFEF89F0A4FCE5F0CE89D8
:10007300F0A42EFFE435F0CD89F0A42DFEE435F095
:100083008067EF4E7005BD80D780C3EF8BF0A4ACC3
:10009300F0EE8BF0A42CFCE435F0F8EF8AF0A42CFE
:1000A300E5F038FCE433CB8DF0A42CFCE5F03BF811
:1000B300EE8AF0A42CFCE5F038F8E433CF89F0A401
:1000C3002CFCE5F038CF3400CE89F0A42FFFE5F007
:1000D3003EFEE433C98DF0A42EFEE5F039CD8AF05F
:1000E300A42FFFE5F03EFEE43DFD33D0E0FB5007D7
:1000F3000BBB000F0201BDEC2CFCEF33FFEE33FE14
:06010300ED33FD02019541
:1001090075F020800E75F010800575F0087D007E71
:10011900007F003392D530D50312023DEC334010F5
:10012900EF33FFEE33FEED33FDEC33FCD5F0ED227A
:0E013900E5F0247EA2D513CC92E7CDCEFF22B6
:10014700EDD2E7CD33EC3392D524814006E4FFFEB0
:10015700FDFC22FCE4CFCECDCC24E0501174FF800F
:10016700EDC3CC13CCCD13CDCE13CECF13CF0470AC
:07017700F030D5DE02023D6D
:10017E00E9D2E7C933E833F892D5EDD2E7CD33ECC7
:07018E0033FC5002B2D52240
:10019500EC30E7100FBF000C0EBE00080DBD0004CB
:1001A5000BEB6014A2D5EB13FCED92E7FD2274FF77
:1001B500FCFDFEFF22E480F8A2D574FF13FC7D80D0
:0301C500E480EFE4
:03000000020739BB
:0C073900787FE4F6D8FD75810702078088
:1001C800BB010CE58229F582E5833AF583E02250EC
:1001D80006E92582F8E622BBFE06E92582F8E22236
:0D01E800E58229F582E5833AF583E4932250
:1001F500EF8DF0A4A8F0CF8CF0A428CE8DF0A42E1E
:02020500FE22D7
:10020700C2D5EC30E709B2D5E4C39DFDE49CFCEE12
:1002170030E715B2D5E4C39FFFE49EFE120257C331
:10022700E49DFDE49CFC800312025730D507C3E42C
:060237009FFFE49EFE2281
:0E023D00C3E49FFFE49EFEE49DFDE49CFC22D2
:0C024B00ECF0A3EDF0A3EEF0A3EFF02226
:1007450002042BE493A3F8E493A34003F68001F29B
:1007550008DFF48029E493A3F85407240CC8C333B5
:10076500C4540F4420C8834004F456800146F6DF84
:10077500E4800B0102040810204080900670E47E9E
:10078500019360BCA3FF543F30E509541FFEE49379
:10079500A360010ECF54C025E060A840B8E493A340
:1007A500FAE493A3F8E493A3C8C582C8CAC583CA6B
:1007B500F0A3C8C582C8CAC583CADFE9DEE780BE23
:0107380000C0
:10025700BC000BBE0029EF8DF084FFADF022E4CC8B
:10026700F875F008EF2FFFEE33FEEC33FCEE9DEC54
:10027700984005FCEE9DFE0FD5F0E9E4CEFD22ED9A
:10028700F8F5F0EE8420D21CFEADF075F008EF2FE4
:10029700FFED33FD4007985006D5F0F222C398FDD5
:0502A7000FD5F0EA2272
:00000001FF
