:10068000253032643A253032643A25303264002510
:100690003032643A253032643A253034640054698B
:1006A0006D653A2000446174653A2000525443203D
:0906B000534F46545741524500D6
:1006EE000C220017003B0032001F000C07D11A30FD
:1006FE000000001F001C001F001E001F001E001F18
:0E070E00001F001E001F001E001F022E000014
:10060700756AFF756B06756C8085226D85236E850F
:10061700246F8525708526718527727B007A00797E
:100627005712006A756AFF756B06756C8F85286DA2
:1006370085296E852A6F852B70852C71852D727B98
:10064700007A00794A12006AE4FDFF1207F27BFF85
:100657007A06799E12071D7B007A00795712071DCB
:10066700E4FD7F011207F27BFF7A0679A512071DC9
:090677007B007A00794A02071D9C
:1006B900AB07AA067C007D04120397ED4C700EFC73
:1006C9007D64AF03AE02120397ED4C600FAE02AF2B
:1006D900037C017D90120397ED4C70057E007F012C
:0506E90022E4FEFF22E7
:03000B0002048369
:10048300C0E0C0F0C083C082C0D075D000C000C03F
:1004930001C002C003C004C005C006C007052FE5A4
:1004A3002F7002052E640A452E600302055E0527A0
:1004B300E52770020526C3943CE526940050030209
:1004C30005557526007527000525E52570020524C9
:1004D300943CE5249400407A752400752500052397
:1004E300E523700205229418E522940040647522E6
:1004F300007523000529E52970020528E52B25E071
:100503002430F8E6F56508E6F566D3E5299566E552
:10051300289565403D752800752901052BE52B704D
:1005230002052AD3940CE52A94004026752A007507
:100533002B00052DE52D7002052CFFAE2C1206B9FC
:10054300EF4E600875340075351D800675340075EF
:10055300351C120607752E00752F00C28DD007D0EB
:1005630006D005D004D003D002D001D000D0D0D023
:0805730082D083D0F0D0E03209
:10080400758901758CFF758A9CD28CD2A9D2AF22CE
:1007BF001207487BFF7A0679AC12071D7FE87E038C
:0B07CF0012077812081B12080480FEBD
:070771001200037F147E005B
:10077800E4FDFCC3ED9FEC9E5015E4FBFA0BBB00B7
:0F078800010AEB647F4A70F50DBD00010C80E49F
:01079700223F
:1007DA00A907ED24FF92A6D2A77F0A7E0012077806
:0807EA008980120778C2A722E2
:07000300C2A5E4FD0207DACB
:07081400C2A57D010207DA15
:05081B007F0102000353
:050820007F0E02000341
:100748007F381207717F041207717F101207717FBB
:1007580008120771E4FF1207717F0C120771120863
:090768001B1207747F0302000359
:1007F200EF7003ED8003ED24404480F567AF67029C
:020802000003F1
:06071D008B7B8A7C897DC4
:10072300E4F57EF57FAB7BAA7CA97D857F82857E00
:100733008312036AFF600D120814057FE57F70E5DD
:04074300057E80E1CE
:01074700228F
:0300000002057B7B
:0C057B00787FE4F6D8FD75817F0205C290
:10036A00BB010CE58229F582E5833AF583E0225048
:10037A0006E92582F8E622BBFE06E92582F8E22292
:0D038A00E58229F582E5833AF583E49322AC
:10039700C2D5EC30E709B2D5E4C39DFDE49CFCEE81
:1003A70030E715B2D5E4C39FFFE49EFE1203F8C3FE
:1003B700E49DFDE49CFC80031203F830D507C3E4F9
:0603C7009FFFE49EFE22F0
:10000E00E576246AF8E60576227867300702786A84
:10001E00E475F00112044D0203CD2000EB7F2ED2C9
:10002E00008018EF540F2490D43440D4FF30040BCA
:10003E00EF24BFB41A0050032461FFE57760021568
:10004E0077057AE57A7002057930070D7867E475E1
:10005E00F00112044DEF0203E60207987403D20773
:10006E008003E4C207F5768B678A688969E4F577C1
:10007E00F579F57AE57760077F2012004980F575EE
:10008E0078FFC201C200C202C203C205C206C20884
:10009E00120017FF700D3007057F0012005AAF7A5D
:1000AE00AE7922B4255FC2D5C204120017FF24D048
:1000BE00B40A00501A75F00A787730D50508B6FFE5
:1000CE000106C6A426F620D5047002D20380D924D8
:1000DE00CFB41A00EF5004C2E5D20402025AD20184
:1000EE0080C6D20080C0D20280BCD2D580BAD205E2
:1000FE0080B47F201200492002077401B5770040BA
:10010E00F112000EFF120049020082D208D20680C0
:10011E009512000EFB12000EFA12000EF94A4B70E9
:10012E0006792B7A037BFF20022EE577602A7E006C
:10013E008E8275830012036A60060EEE657870F08B
:10014E00C2D5EBC0E0EAC0E0E9C0E0EE1202A1D0F9
:10015E00E0F9D0E0FAD0E0FB1203CDFF60AAEBC0CD
:10016E00E0EAC0E0E9C0E0120049D0E02401F9D095
:10017E00E03400FAD0E0FBE5780460DCD578D98075
:10018E00877BFF7A02799DD202809C79108002795A
:10019E0008C206C2088008D2D5790A8004790AC23C
:1001AE00D5E578047002F578E4FAFDFEFF12000E34
:1001BE00FC7B0820011312000EFD7B1030000A128A
:1001CE00000EFE12000EFF7B20EC3382D592D5502E
:1001DE0013C3E43000069FFFE49EFEE42001039D5E
:1001EE00FDE49CFCE4CBF8C201EC700CCFCECDCC80
:1001FE00E824F8F870F38017C3EF33FFEE33FEED0B
:10020E0033FDEC33FCEB33FB994002FB0FD8E9EBEB
:10021E00300105F8D0E0C448B201C0E00AEC4D4E02
:10022E004F78207B0070C2EAB5780040BCC0E01267
:10023E0002A3D0F0D0E0200104C4C0E0C4B201C0DB
:10024E00F0120032D0F0D5F0EB02008212045D0104
:10025E001F5301995800F04C00EC42019D4F01A52F
:0F026E004401A54901054301AB55018F46018F9E
:10027D0045018F47034B5000F42D00F82E011B2B29
:10028D0000FC2301192003342A00B4480000011397
:10029D003F3F3F00790AA2D5200314300509B9105C
:1002AD00020404B9080104A2D5200602500104205D
:1002BD0002689202B577005034C0E07F20300319F8
:1002CD007F30A20272067205500F1202FAC202C2EC
:1002DD0006C205C2087F30800F300503E9C0E01269
:1002ED000049300503D0E0F9D0E0B577CC300517E3
:1002FD007F30B9100C1200497F583004077F788089
:10030D0003B908031200493002057F2D0200497F11
:10031D00202008F87F2B2006F322920280CF286E32
:10032D00756C6C2900D20112000E3001F8C20178F3
:10033D007730D50108F60200B42D5043495812000C
:10034D000E2403B405004001E49003469312003AD5
:0D035D00743A12003AD20375770402019938
:100587000207BFE493A3F8E493A34003F68001F2C4
:1005970008DFF48029E493A3F85407240CC8C33375
:1005A700C4540F4420C8834004F456800146F6DF44
:1005B700E4800B01020408102040809006EEE47EE0
:1005C700019360BCA3FF543F30E509541FFEE49339
:1005D700A360010ECF54C025E060A840B8E493A300
:1005E700FAE493A3F8E493A3C8C582C8CAC583CA2B
:1005F700F0A3C8C582C8CAC583CADFE9DEE780BEE3
:01071C0000DC
:1003CD00BB010689828A83E0225002E722BBFE022E
:0903DD00E32289828A83E4932261
:1003E600BB010689828A83F0225002F722BBFE01F6
:0203F600F322F0
:1003F800BC000BBE0029EF8DF084FFADF022E4CCE9
:10040800F875F008EF2FFFEE33FEEC33FCEE9DECB1
:10041800984005FCEE9DFE0FD5F0E9E4CEFD22EDF7
:10042800F8F5F0EE8420D21CFEADF075F008EF2F41
:10043800FFED33FD4007985006D5F0F222C398FD32
:050448000FD5F0EA22CF
:10044D00FAE6FB0808E6F925F0F618E6CA3AF622B0
:10045D00D083D082F8E4937012740193700DA3A32E
:10046D0093F8740193F5828883E473740293686042
:06047D00EFA3A3A380DF42
:10079800EFB40A07740D1207A3740A309811A899C8
:1007A800B8130CC2983098FDA899C298B811F630C1
:0707B80099FDC299F5992299
:00000001FF
