:0A0B69003F065B4F666D7D077F6F4E
:0609AF000159000158008F
:0E0B4E00D2A000D2A100C2A000C2A1000022CD
:0D0B5C00C2A00000D2A10000D2A000002223
:060B8100120B4E020B5C9A
:0509F900120B4E7FA06F
:1009FE00E4FEEF30E703D38001C392A00000D2A142
:100A0E0000C2A100C2A1EF25E0FF0EBE08E4D2A0F5
:060A1E0000D2A100C2A1FC
:010A240022AF
:100ADE00E4FFD2A0FE00D2A100EF25E0FFA2A0E429
:090AEE00334FFFC2A10EBE08EC5B
:010AF70022DC
:100AF800AC071209F9AF041209FEAF051209FE127C
:090B08000B5C7F0A7E00020A80EA
:020B2900AD0716
:100B2B001209F9AF051209FE1209F9120ADE020BBE
:010B3B005C5D
:020AA0008F487D
:100AA20078497C007D007BFF7A0B79697E007F0AA2
:0D0AB2001208D0C2A574492548F8E6F58069
:010ABF002214
:100AC000AF59120AA00559AD58E4FF120AF8AD5902
:0E0AD0007F01120AF87FE87E03120A8080E29E
:1009B500204008000A1F1F0E040000040E0E0E1F23
:1009C5000004001F151F1F0E0A1B00000103161C43
:1009D50008000001030F0F0F0F03010103050909AB
:1009E5000B1B18000E151B0E0E00000E11111F1B00
:0309F5001B1B1FAA
:070A7900120B737F147E00D5
:100A8000E4FDFCC3ED9FEC9E5015E4FBFA0BBB00AC
:0F0A9000010AEB64724A70F50DBD00010C80E4A1
:010A9F002234
:100B1100A907ED24FF92A6D2A77F0A7E00120A80C0
:080B21008980120A80C2A7229C
:070B7300C2A5E4FD020B1115
:070B7A00C2A57D01020B1171
:050B87007F01020B7369
:100A50007F38120A797F04120A797F10120A797F8F
:100A600008120A79E4FF120A797F0C120A79120B34
:090A700087120A7C7F03020B735C
:100B3C00EF7003ED8003ED24404480F55AAF5A0268
:020B4C000B7329
:060A25008B538A54895531
:100A2B00E4F556F557AB53AA54A95585578285560D
:100A3B00831208F6FF600D120B7A0557E55770E528
:040A4B00055680E1EB
:010A4F002284
:03000000020923CF
:0C092300787FE4F6D8FD75815A02096A5D
:10080000E709F608DFFA8046E709F208DFFA803EDA
:1008100088828C83E709F0A3DFFA8032E309F608C7
:10082000DFFA8078E309F208DFFA807088828C832F
:10083000E309F0A3DFFA806489828A83E0A3F608E3
:10084000DFFA805889828A83E0A3F208DFFA804CBD
:1008500080D280FA80C680D4806980F28033801094
:1008600080A680EA809A80A880DA80E280CA8033FD
:1008700089828A83ECFAE493A3C8C582C8CCC58375
:10088000CCF0A3C8C582C8CCC583CCDFE9DEE78045
:100890000D89828A83E493A3F608DFF9ECFAA9F0C4
:1008A000EDFB2289828A83ECFAE0A3C8C582C8CC1A
:1008B000C583CCF0A3C8C582C8CCC583CCDFEADE33
:1008C000E880DB89828A83E493A3F208DFF980CC95
:1008D00088F0EF60010E4E60C388F0ED2402B4048E
:1008E0000050B9F582EB2402B4040050AF23234535
:0608F00082239008507302
:1008F600BB010CE58229F582E5833AF583E02250B7
:1009060006E92582F8E622BBFE06E92582F8E22200
:0D091600E58229F582E5833AF583E493221A
:10092F00020AC0E493A3F8E493A34003F68001F214
:10093F0008DFF48029E493A3F85407240CC8C333C9
:10094F00C4540F4420C8834004F456800146F6DF98
:10095F00E4800B01020408102040809009AFE47E70
:10096F00019360BCA3FF543F30E509541FFEE4938D
:10097F00A360010ECF54C025E060A840B8E493A354
:10098F00FAE493A3F8E493A3C8C582C8CAC583CA7F
:10099F00F0A3C8C582C8CAC583CADFE9DEE780BE37
:0109F80000FE
:00000001FF
