:100A3100754D0A120AA81209BFAD4D7F017E001241
:100A410009697F017E001208D0E54DB507EB80E909
:050AA800D2A0D2A12242
:0E0A8C00D2A000D2A100C2A000C2A100002290
:100A7B00C2A00000C2A00000D2A10000D2A00000C2
:010A8B002248
:07090C00540725E044A0FFA1
:10091300C2A2E4FEEF30E703D38001C392A000003C
:10092300D2A10000C2A1EF25E0FF0EBE08E6D2A0CF
:0809330000D2A120A0FDC2A129
:01093B002299
:100A0F00E4FFD2A0FE00D2A100EF25E0FFA2A0E4F8
:100A1F00334FFFC2A10EBE08ECC2A000D2A100C28C
:010A2F00A125
:010A300022A3
:02096900AE07D7
:10096B00EEC413135403FCEE543FFB120A8C7F406E
:10097B00120913EC12090CAF04120913AF0312097D
:09098B0013AF05120913020A7BE7
:0208D000AE0771
:1008D200EEC413135403FDEE543FFC120A8C7F4006
:1008E200120913ED12090CAF05120913AF04120914
:1008F20013120A8C7F41120913ED540725E044A11B
:0A090200FF120913120A0F020A7B0C
:10088C00204008000A1F1F0E040000040E0E0E1F4D
:10089C000004001F151F1F0E0A1B00000103161C6D
:1008AC0008000001030F0F0F0F03010103050909D5
:1008BC000B1B18000E151B0E0E00000E11111F1B2A
:0308CC001B1B1FD4
:0709E800120A9A7F147E0041
:1009EF00E4FDFCC3ED9FEC9E5015E4FBFA0BBB003E
:0F09FF00010AEB64724A70F50DBD00010C80E433
:010A0E0022C5
:100A5100A907ED24FF92A6D2A77F0A7E001209EF13
:080A610089801209EFC2A722EF
:070A9A00C2A5E4FD020A51B0
:070AA100C2A57D01020A510C
:050AAD007F01020A9A1E
:1009BF007F381209E87F041209E87F101209E87FD7
:1009CF00081209E8E4FF1209E87F0C1209E8120A7D
:0909DF00AD1209EB7F03020A9A34
:100A6900EF7003ED8003ED24404480F552AF52024C
:020A79000A9AD7
:060994008B488A49894AE4
:10099A00E4F54BF54CAB48AA49A94A854C82854BEC
:1009AA008312093CFF600D120AA1054CE54C70E563
:0409BA00054B80E188
:0109BE002216
:03000000020800F3
:0C080000787FE4F6D8FD758152020847AD
:10093C00BB010CE58229F582E5833AF583E0225070
:10094C0006E92582F8E622BBFE06E92582F8E222BA
:0D095C00E58229F582E5833AF583E49322D4
:10080C00020A31E493A3F8E493A34003F68001F2C7
:10081C0008DFF48029E493A3F85407240CC8C333ED
:10082C00C4540F4420C8834004F456800146F6DFBC
:10083C00E4800B010204081020408090088CE47EB8
:10084C00019360BCA3FF543F30E509541FFEE493B1
:10085C00A360010ECF54C025E060A840B8E493A378
:10086C00FAE493A3F8E493A3C8C582C8CAC583CAA3
:10087C00F0A3C8C582C8CAC583CADFE9DEE780BE5B
:0108CF000028
:00000001FF
