:100A1600253032643A253032643A25303264005249
:100A26005443203A00256868753A256868753A2562
:100A3600686875005254432066726F6D20706F723D
:090A460074006E6F6461746100BC
:0A0BC20002520000C10F02560000AD
:0C0BAB00758920758DFD759850D28E2242
:0B0BB7003098FDC298859951D20F22A2
:030BED00020A8475
:100B9B00758901758CFF758A9CD28CD2A9D2AF2234
:1009DA007526FF75270A75281685602985612A8577
:1009EA005E2B855F2C855A2D855B2E7B007A0079DC
:1009FA006212006AE4FDFF120B787BFF7A0A7925FE
:0C0A0A00120A847B007A007962020A84E0
:100A4F00AB07AA067C007D041206AEED4C700EFCBF
:100A5F007D64AF03AE021206AEED4C600FAE02AF77
:100A6F00037C017D901206AEED4C70057E007F0178
:050A7F0022E4FEFF224D
:03000B0002084A9E
:10084A00C0E0C0F0C083C082C0D075D000C000C074
:10085A0001C002C003C004C005C006C0070557E5B1
:10086A005770020556640A45567054055BE55B707D
:10087A0002055AC3943CE55A9400403A755A0075E9
:10088A005B00055FE55F7002055E943CE55E9400DF
:10089A004024755E00755F000561E56170020560C0
:1008AA009418E5609400400E756000756100055D5E
:1008BA00E55D7002055C1209DA755600755700C2CB
:1008CA008DD007D006D005D004D003D002D001D0F5
:0C08DA0000D0D0D082D083D0F0D0E0322B
:100AD800753AFF753B0A753C2B753D00753E0075F0
:100AE8003F6075400075410075425E75430075446E
:070AF8000075455A0203E8F6
:10097200120AAF7BFF7A0A793A120A847FE87E0371
:10098200120B06120BDE120BAB120BB7300F3EE549
:1009920051646E702774622553F8E4F6FB7A00798D
:1009A20062120AD8E4F552F553FE7F0CFDFB7A0081
:1009B20079621206E4C20F120B9B80CD746225533A
:1009C200F8A6510553E55370C0055280BC7BFF7AEF
:0809D2000A7948120BED80B117
:070AFF001200037F147E00CA
:100B0600E4FDFCC3ED9FEC9E5015E4FBFA0BBB0025
:0F0B1600010AEB647F4A70F50DBD00010C80E40D
:010B250022AD
:100B4D00A907ED24FF92A6D2A77F0A7E00120B06FD
:080B5D008980120B06C2A722D9
:07000300C2A5E4FD020B4D54
:070BD700C2A57D01020B4DD8
:050BDE007F010200038D
:050BE3007F0E0200037B
:100AAF007F38120AFF7F04120AFF7F10120AFF7F9E
:100ABF0008120AFFE4FF120AFF7F0C120AFF120B43
:090ACF00DE120B027F030200039A
:100B7800EF7003ED8003ED24404480F523AF23029A
:020B8800000368
:060A84008B378A38893926
:100A8A00E4F53AF53BAB37AA38A939853B82853A72
:100A9A0083120681FF600D120BD7053BE53B70E51B
:040AAA00053A80E1A8
:010AAE002225
:030000000208E60D
:0C08E600787FE4F6D8FD75816D02092DC5
:10068100BB010CE58229F582E5833AF583E022502E
:1006910006E92582F8E622BBFE06E92582F8E22278
:0D06A100E58229F582E5833AF583E4932292
:1006AE00C2D5EC30E709B2D5E4C39DFDE49CFCEE67
:1006BE0030E715B2D5E4C39FFFE49EFE12073BC39D
:1006CE00E49DFDE49CFC800312073B30D507C3E498
:0606DE009FFFE49EFE22D6
:10000E00E5322426F8E605322278233007027826D8
:10001E00E475F0011207E00207102000EB7F2ED2EC
:10002E00008018EF540F2490D43440D4FF30040BCA
:10003E00EF24BFB41A0050032461FFE533600215AC
:10004E00330536E5367002053530070D7823E47535
:10005E00F0011207E0EF020729020B267403D20704
:10006E008003E4C207F5328B238A248925E4F53315
:10007E00F535F536E53360077F2012004980F575BA
:10008E0034FFC201C200C202C203C205C206C208C8
:10009E00120017FF700D3007057F0012005AAF36A1
:1000AE00AE3522B4255FC2D5C204120017FF24D08C
:1000BE00B40A00501A75F00A783330D50508B6FF29
:1000CE000106C6A426F620D5047002D20380D924D8
:1000DE00CFB41A00EF5004C2E5D20402025AD20184
:1000EE0080C6D20080C0D20280BCD2D580BAD205E2
:1000FE0080B47F201200492002077401B5330040FE
:10010E00F112000EFF120049020082D208D20680C0
:10011E009512000EFB12000EFA12000EF94A4B70E9
:10012E0006792B7A037BFF20022EE533602A7E00B0
:10013E008E8275830012068160060EEE653470F0B5
:10014E00C2D5EBC0E0EAC0E0E9C0E0EE1202A1D0F9
:10015E00E0F9D0E0FAD0E0FB120710FF60AAEBC086
:10016E00E0EAC0E0E9C0E0120049D0E02401F9D095
:10017E00E03400FAD0E0FBE5340460DCD534D980FD
:10018E00877BFF7A02799DD202809C79108002795A
:10019E0008C206C2088008D2D5790A8004790AC23C
:1001AE00D5E534047002F534E4FAFDFEFF12000EBC
:1001BE00FC7B0820011312000EFD7B1030000A128A
:1001CE00000EFE12000EFF7B20EC3382D592D5502E
:1001DE0013C3E43000069FFFE49EFEE42001039D5E
:1001EE00FDE49CFCE4CBF8C201EC700CCFCECDCC80
:1001FE00E824F8F870F38017C3EF33FFEE33FEED0B
:10020E0033FDEC33FCEB33FB994002FB0FD8E9EBEB
:10021E00300105F8D0E0C448B201C0E00AEC4D4E02
:10022E004F78207B0070C2EAB5340040BCC0E012AB
:10023E0002A3D0F0D0E0200104C4C0E0C4B201C0DB
:10024E00F0120032D0F0D5F0EB020082120800015D
:10025E001F5301995800F04C00EC42019D4F01A52F
:0F026E004401A54901054301AB55018F46018F9E
:10027D0045018F47034B5000F42D00F82E011B2B29
:10028D0000FC2301192003342A00B4480000011397
:10029D003F3F3F00790AA2D5200314300509B9105C
:1002AD00020404B9080104A2D5200602500104205D
:1002BD0002689202B533005034C0E07F203003193C
:1002CD007F30A20272067205500F1202FAC202C2EC
:1002DD0006C205C2087F30800F300503E9C0E01269
:1002ED000049300503D0E0F9D0E0B533CC30051727
:1002FD007F30B9100C1200497F583004077F788089
:10030D0003B908031200493002057F2D0200497F11
:10031D00202008F87F2B2006F322920280CF286E32
:10032D00756C6C2900D20112000E3001F8C20178F3
:10033D003330D50108F60200B42D50434958120050
:10034D000E2403B405004001E49003469312003AD5
:0D035D00743A12003AD2037533040201997C
:10036A00E54C300C0104F82328243AF82278373077
:10037A000C02783AE475F0011207E002071060EC0B
:10038A00C5507002154F14C550200C04FF020BE82B
:10039A00783774FFF5F00207F0FF020B65E54D6050
:1003AA0006D54D037F0022200C0F120B8AEF60083E
:1003BA000550E5507002054F2278371207D7120709
:1003CA0010FF60E97837E475F0011207E080DE1269
:1003DA0003B1EFC0E01203A3D0E040F380A0D20C37
:1003EA008002C20C8B378A388939E4F54EF54CF510
:1003FA004FF550754D00C20BC209C20AC20D120355
:10040A0077FF7005AF4E7E0022B42530120377FFC6
:10041A0024D0B40A00500C75F00AC54DA4254DF538
:10042A004D80E924CFB41A00EF5002C2E502064D0E
:10043A00D20A80D8D20980D4D20D80D0EF1203A379
:10044A0050081203D9EF600E80A9EFC0E01203B181
:10045A00D0E06F609EEF607412038880A71203B128
:10046A00EF6069E54D7007054D80031203B1EF6037
:10047A0014200D0E12036AE475F0011207E0EF1260
:10048A000729D54DE6200D04054C054E80BA120306
:10049A00A7EFC0E01203A3D0E05004120388E4FFE0
:1004AA00200D0E12036AE475F0011207E0EF12073D
:1004BA0029EF70DA200D04054C054E808BE54D605E
:1004CA0002054D1203D91203A7EF70C6300C04E4DB
:1004DA00120388E54E600302040E7EFF7FFF22208E
:1004EA000D1174FFFCFDFEFF12036A1207D71207F3
:1004FA00BD054C0203FDD0E080D27900800A791054
:10050A00800679088002790AD20EE54D6002054D0F
:10051A00E9C0E01203D9EF60DD1203B1BF2D04D2A6
:10052A000B8003BF2B091203D9EF60CA1203A7D0AD
:10053A00E0B40A028033B40802802EBF302770026A
:10054A007408C20EC0E01203A7D0E0BF780280038D
:10055A00BF5816054DD54D028007D54D04D20E80E1
:10056A000B741080197002740ABF000AEFF8E4FCD9
:10057A00FDFEFF020600C0E0EF120388D0E0F9E4B6
:10058A00FCFDFEFFE9C0E0ECC0E0EDC0E0EEC0E03B
:10059A00EFC0E01203A7EFF8D0E0FFD0E0FED0E012
:1005AA00FDD0E0FCD0F0E8604DB461004007B47BB8
:1005BA00005002C2E524D0503DFA24F6500724F92F
:1005CA005034240AFAEAB5F000502BCFA9F0A42F30
:1005DA00FF92D5E9C5F0CEA4A2D53EFE92D5E9C5D3
:1005EA00F0CDA4A2D53DFD92D5E9C5F0CCA4A2D503
:0B05FA003CFCC20E808EE8C0E0200D2B
:100605002A200E08054E300B031207AF12036A129B
:1006150007D7054C20090B200A0DEE8FF012079025
:1006250080091207BD8004EF120729D0E012038864
:100635000203FD200D1012036A1207D7054CE54F82
:100645008550F012079080E812080004C75305088A
:1006550058043E4C043A42041648050C4F05104414
:1006650004674305044905105504E94604E94504B2
:0C067500E94704422A06384E0000044603
:1006E400EF4E6012EF60010EEDBB010B89828A832D
:1006F400F0A3DFFCDEFA2289F05007F709DFFCA93A
:0C070400F022BBFEFCF309DFFCA9F02290
:1008F200020972E493A3F8E493A34003F68001F2A1
:1009020008DFF48029E493A3F85407240CC8C33306
:10091200C4540F4420C8834004F456800146F6DFD5
:10092200E4800B0102040810204080900BC2E47E98
:10093200019360BCA3FF543F30E509541FFEE493CA
:10094200A360010ECF54C025E060A840B8E493A391
:10095200FAE493A3F8E493A3C8C582C8CAC583CABC
:10096200F0A3C8C582C8CAC583CADFE9DEE780BE74
:010BCC000028
:10071000BB010689828A83E0225002E722BBFE02E7
:09072000E32289828A83E493221A
:10072900BB010689828A83F0225002F722BBFE01AF
:02073900F322A9
:10073B00BC000BBE0029EF8DF084FFADF022E4CCA2
:10074B00F875F008EF2FFFEE33FEEC33FCEE9DEC6B
:10075B00984005FCEE9DFE0FD5F0E9E4CEFD22EDB1
:10076B00F8F5F0EE8420D21CFEADF075F008EF2FFB
:10077B00FFED33FD4007985006D5F0F222C398FDEC
:05078B000FD5F0EA2289
:10079000BB010A89828A83F0E5F0A3F0225006F7B4
:0F07A00009A7F01922BBFE06F3E5F009F31922B1
:0E07AF00C3E49FFFE49EFEE49DFDE49CFC225B
:1007BD00BB010789828A830208325005E9F80208D5
:0A07CD0026BBFE05E9F802083E22F3
:0907D700E6FB08E6FA08E6F92247
:1007E000FAE6FB0808E6F925F0F618E6CA3AF6221A
:1007F000FAE6FB0808E625F0F9F618E63AFAF622DA
:10080000D083D082F8E4937012740193700DA3A387
:1008100093F8740193F5828883E47374029368609B
:06082000EFA3A3A380DF9B
:100B2600EFB40A07740D120B31740A309811A899A4
:100B3600B8130CC2983098FDA899C298B811F6302F
:070B460099FDC299F5992207
:100B8A0010100B120BCDBF0D027F0A020B26AF0805
:010B9A002238
:050BE8008F08D210226D
:100B6500EFC394094005EF940E4003BF2003D380E3
:030B750001C32297
:0C082600ECF608EDF608EEF608EFF622FE
:0C083200ECF0A3EDF0A3EEF0A3EFF02239
:0C083E00ECF208EDF208EEF208EFF222F6
:0A0BCD003098FDAF99C2987E002217
:00000001FF
