:1005930072656164696E670077726974696E67007A
:0A05A3003F065B4F666D7D077F6F1A
:0C041100045F00000000016300015E00B9
:0E060300D2A000D2A100C2A000C2A10000221D
:0D061100C2A00000D2A10000D2A000002273
:06062C0012060302061194
:0504D2001206037FA0EB
:1004D700E4FEEF30E703D38001C392A00000D2A16E
:1004E70000C2A100C2A1EF25E0FF0EBE08E4D2A022
:0604F70000D2A100C2A129
:0104FD0022DC
:10057900E4FFD2A0FE00D2A100EF25E0FFA2A0E493
:09058900334FFFC2A10EBE08ECC5
:010592002246
:1005AD00AC071204D2AF041204D7AF051204D71250
:0905BD0006117F0A7E00020559B7
:0204A2008F4C7D
:1004A400E4F551E54C2551FFC007AF50AE4FAD4EBA
:1004B400AC4DE55175F008A4F9F81201F4AD07D07C
:0D04C400071205AD0551E551C3940440D663
:0104D1002208
:0205DE00AD0767
:1005E0001204D2AF051204D71204D2120579020602
:0105F00011F9
:02046100AB07E7
:10046300E4F54FF54EF54DF54CFAEB2AFF1205DE98
:10047300E4FCFDFEEA75F008A4F9F8120207E54F63
:100483004FF54FE54E4EF54EE54D4DF54DE54C4CD4
:0E049300F54C0ABA04D4AF4FAE4EAD4DAC4C92
:0104A1002238
:08021A008F4F8E4E8D4D8C4C70
:1002220078507C007D007BFF7A0579A37E007F0AEF
:100232001200D3E47B0AFAF9F8AF4FAE4EAD4DACE3
:100242004C120162AF038F5AE47B0AFAF9F8AF4FFE
:10025200AE4EAD4DAC4C120162E47B0AFAF9F812D3
:100262000162AF038F5BE47B64FAF9F8AF4FAE4EE5
:10027200AD4DAC4C120162E47B0AFAF9F81201624C
:10028200AF038F5CE47BE87A03F9F8AF4FAE4EAD73
:100292004DAC4C120162E47B0AFAF9F8120162AF2A
:1002A200038F5DC2A2D2A3D2A4D2A574502FF8E6C6
:1002B200F5807FE87E03120559D2A2C2A3D2A4D24E
:1002C200A57450255CF8E6F5807FE87E0312055997
:1002D200D2A2D2A3C2A4D2A57450255BF8E6F580BF
:1002E2007FE87E03120559D2A2D2A3D2A4C2A5747A
:1002F20050255AF8E6F5807FE87E03120559D2A20E
:0D030200D2A3D2A4D2A57FE87E0302055944
:10039B0012052912062CE4FF1204618F628E618D07
:1003AB00608C5F7D01E4FF1205F17BFF7A05799389
:0803BB001204FEAF62120625D8
:1003C300AF62AE61AD60AC5F12021AE5622401F563
:1003D30062E43561F561E43560F560E4355FF55F4E
:1003E30085625085614F85604EF54DE4FF1204A28E
:1003F300E4FD7F011205F17BFF7A05799B1204FE70
:0C040300AF621206257FE87E0312055947
:02040F0080B2B9
:10041D00204008000A1F1F0E040000040E0E0E1FC0
:10042D000004001F151F1F0E0A1B00000103161CE0
:10043D0008000001030F0F0F0F0301010305090948
:10044D000B1B18000E151B0E0E00000E11111F1B9D
:03045D001B1B1F47
:0705520012061E7F147E005B
:10055900E4FDFCC3ED9FEC9E5015E4FBFA0BBB00D8
:0F056900010AEB64724A70F50DBD00010C80E4CD
:010578002260
:1005C600A907ED24FF92A6D2A77F0A7E001205593D
:0805D6008980120559C2A72219
:07061E00C2A5E4FD0205C6C0
:07062500C2A57D010205C61C
:050632007F0102061E1D
:100529007F381205527F041205527F101205527F3F
:1005390008120552E4FF1205527F0C1205521206E9
:09054900321205557F0302061E63
:1005F100EF7003ED8003ED24404480F54CAF4C02D5
:02060100061ED3
:0604FE008B4C8A4D894E73
:10050400E4F54FF550AB4CAA4DA94E855082854F6A
:10051400831200F9FF600D1206250550E55070E5C1
:04052400054F80E11E
:0105280022B0
:0300000002030FE9
:0C030F00787FE4F6D8FD75816302035688
:10000300E709F608DFFA8046E709F208DFFA803EDF
:1000130088828C83E709F0A3DFFA8032E309F608CC
:10002300DFFA8078E309F208DFFA807088828C8334
:10003300E309F0A3DFFA806489828A83E0A3F608E8
:10004300DFFA805889828A83E0A3F208DFFA804CC2
:1000530080D280FA80C680D4806980F28033801099
:1000630080A680EA809A80A880DA80E280CA803302
:1000730089828A83ECFAE493A3C8C582C8CCC5837A
:10008300CCF0A3C8C582C8CCC583CCDFE9DEE7804A
:100093000D89828A83E493A3F608DFF9ECFAA9F0C9
:1000A300EDFB2289828A83ECFAE0A3C8C582C8CC1F
:1000B300C583CCF0A3C8C582C8CCC583CCDFEADE38
:1000C300E880DB89828A83E493A3F208DFF980CC9A
:1000D30088F0EF60010E4E60C388F0ED2402B40493
:1000E3000050B9F582EB2402B4040050AF2323453A
:0600F3008223900053730C
:1000F900BB010CE58229F582E5833AF583E02250BC
:1001090006E92582F8E622BBFE06E92582F8E22205
:0D011900E58229F582E5833AF583E493221F
:1001260075F008758200EF2FFFEE33FECD33CDCC90
:1001360033CCC58233C5829BED9AEC99E582984013
:100146000CF582EE9BFEED9AFDEC99FC0FD5F0D6F0
:10015600E4CEFBE4CDFAE4CCF9A88222B800C1B91A
:100166000059BA002DEC8BF084CFCECDFCE5F0CB58
:10017600F97818EF2FFFEE33FEED33FDEC33FCEB91
:1001860033FB10D703994004EB99FB0FD8E5E4F94C
:10019600FA227818EF2FFFEE33FEED33FDEC33FC39
:1001A600C933C910D7059BE99A4007EC9BFCE99A2D
:1001B600F90FD8E0E4C9FAE4CCFB2275F010EF2F72
:1001C600FFEE33FEED33FDCC33CCC833C810D70772
:1001D6009BEC9AE899400AED9BFDEC9AFCE899F8AD
:0E01E6000FD5F0DAE4CDFBE4CCFAE4C8F92240
:1001F400E8600FECC313FCED13FDEE13FEEF13FFE9
:03020400D8F1220C
:10020700E8600FEFC333FFEE33FEED33FDEC33FC55
:03021700D8F122F9
:10031B0002039BE493A3F8E493A34003F68001F25A
:10032B0008DFF48029E493A3F85407240CC8C333E3
:10033B00C4540F4420C8834004F456800146F6DFB2
:10034B00E4800B0102040810204080900411E47E2D
:10035B00019360BCA3FF543F30E509541FFEE493A7
:10036B00A360010ECF54C025E060A840B8E493A36E
:10037B00FAE493A3F8E493A3C8C582C8CAC583CA99
:10038B00F0A3C8C582C8CAC583CADFE9DEE780BE51
:01046000009B
:00000001FF
