:10157800252E32660074656D70726574757265002B
:10129F001212FE121355900040120D3E9000517421
:1012AF00FFF0A37415F0A37478F0900040E0FCA356
:1012BF00E0FDA3E0FEA3E0FF900054120D3E7B0182
:1012CF007A007944120DF5E4FDFF1215617BFF7A68
:1012DF0015797D1213EDE4FD7F011215617B017A03
:0F12EF000079441213ED7FE87E0312150A80A4E4
:10146200E4900052F0D2B77F08FE121588C2B77F0F
:10147200507E00121588D2B77F0E7E00121588A208
:10148200B7E433900052F07F147E0012158890006A
:0314920052E0FF26
:011495002234
:10152A00900054EFF0C2B77F027E00121588900037
:0F153A0054E024FF92B7D2B77F417E000215889C
:10154900E4C2B77F0FFE121588D2B77F0F7E001253
:071559001588A2B7E433FF7F
:011560002268
:05149600900052EFF090
:10149B00E4A3F0900052E05401FF12152A90005281
:1014AB00E0C313F0A3E004F0E0C3940840E57F0A27
:0514BB007E000215880F
:10142B00E4900053F0900052F0900053E0FFC31390
:10143B00F0121549EF600E900053E04480F07F05E9
:10144B007E00121588900052E004F0E0C39408402F
:06145B00D8900053E0FFF1
:011461002268
:101355001214627FCC1214967F441214967FEE7E8F
:101365000212150A1214627FCC1214967FBE121453
:101375009612142B900050EFF012142B900051EFA1
:10138500F0FD900050E03395E0ED3395E07E027F6F
:10139500017D017C02EC12090BE4FBFA7980783DB2
:0313A5000208003B
:10150A00E4FDFCC3ED9FEC9E5015E4FBFA0BBB0017
:0F151A00010AEB64724A70F50DBD00010C80E40C
:01152900229F
:0E158800EF1FAC0670011E4C60030080F322C2
:1013A80060400000000A1F1F0E040000040E0E0E0D
:1013B8001F0004001F151F1F0E0A1B000001031643
:1013C8001C08000001030F0F0F0F0301010305099B
:1013D800090B1B18000E151B0E0E00000E11111F15
:0413E8001B1B1B1F91
:1014E700900053EFF0ED24FF92A6D2A77F0A7E006B
:1014F70012150A900053E0F5807F0A7E0012150A44
:03150700C2A72256
:07159600C2A5E4FD0214E709
:07159D00C2A57D010214E765
:0515A4007F0102159615
:1012FE007F381215967F147E0012150A7F04121580
:10130E00967F147E0012150A7F101215967F147E9A
:10131E000012150A7F081215967F147E0012150A08
:10132E00E4FF1215967F147E0012150A7F0C12151B
:10133E00967F147E0012150A1215A47F147E0012D9
:07134E00150A7F030215964A
:10156100EF7003ED8003ED2440448090004EF09035
:07157100004EE0FF02159699
:0B13ED0090004EEBF0A3EAF0A3E9F043
:1013F800E4A3F0A3F090004EE0FBA3E0FAA3E0F929
:10140800A3E0FEA3E0F5828E83120CF1FF601312B5
:10141800159D900052E004F070DB900051E004F05C
:0214280080D36F
:01142A00229F
:10080000EC4D6011E8497017ED33EC3304600DE4F2
:10081000FCFFFEFD22E933E8330470F80209791287
:10082000094458046009E4CC248150062850090288
:100830000983284003020980C0E0EB4A7044B98074
:1008400006D0E0FB02096FEF4E701CBD8008EBFF85
:10085000EAFEE9FD80EBE98DF0A4FEE5F00208E98F
:10086000E9CDF9EAFEEBFFEF89F0A4FCE5F0CE89D3
:10087000F0A42EFFE435F0CD89F0A42DFEE435F090
:100880008067EF4E7005BD80D780C3EF8BF0A4ACBE
:10089000F0EE8BF0A42CFCE435F0F8EF8AF0A42CF9
:1008A000E5F038FCE433CB8DF0A42CFCE5F03BF80C
:1008B000EE8AF0A42CFCE5F038F8E433CF89F0A4FC
:1008C0002CFCE5F038CF3400CE89F0A42FFFE5F002
:1008D0003EFEE433C98DF0A42EFEE5F039CD8AF05A
:1008E000A42FFFE5F03EFEE43DFD33D0E0FB5007D2
:1008F0000BBB000F020983EC2CFCEF33FFEE33FE41
:06090000ED33FD02095B6E
:1009060075F020800E75F010800575F0087D007E6C
:10091600007F003392D530D503120D30EC334010F2
:10092600EF33FFEE33FEED33FDEC33FCD5F0ED2275
:0E093600E5F0247EA2D513CC92E7CDCEFF22B1
:100D9000E5082451F582E43400F583E0050822904B
:100DA000004E300703900051E475F001120D4A0225
:100DB0000CD82000E97F2ED2008018EF540F249029
:100DC000D43440D4FF30040BEF24BFB41A005003D6
:100DD0002461FFE50960021509050CE50C700205A8
:100DE0000B30070E90004EE475F001120D4AEF0231
:100DF0000D1E0214C07403D2078003E4C207F50875
:100E000090004E120D61E4F509F50BF50CE5096053
:100E1000077F20120DD380F5750AFFC201C200C200
:100E200002C203C205C206C208120D9FFF700D3038
:100E300007057F00120DE4AF0CAE0B22B4255FC294
:100E4000D5C204120D9FFF24D0B40A00501A75F0C9
:100E50000A780930D50508B6FF0106C6A426F62093
:100E6000D5047002D20380D924CFB41A00EF500405
:100E7000C2E5D2040210D6D20180C6D20080C0D210
:100E80000280BCD2D580BAD20580B47F20120DD3A7
:100E90002002077401B5090040F1120D90FF120DF8
:100EA000D3020E0DD208D2068095120D90FB120DC2
:100EB00090FA120D90F94A4B700679D47A117BFFA3
:100EC00020022EE509602A7E008E82758300120CB6
:100ED000F160060EEE650A70F0C2D5EBC0E0EAC024
:100EE000E0E9C0E0EE121137D0E0F9D0E0FAD0E04E
:100EF000FB120CD8FF60AAEBC0E0EAC0E0E9C0E05A
:100F0000120DD3D0E02401F9D0E03400FAD0E0FB98
:100F1000E50A0460DCD50AD98087D20280A21211CA
:100F20001960F7E50A70010412098EA90A600DE53F
:100F30000A600914F50A1211C1EF60F3EA30E70202
:100F4000F404C3995079EAF4250A0430E701E40473
:100F5000F50A800D12111960C1EA050A250A120965
:100F60008EEA90007DF030E701E4250A04D50A04FA
:100F700020050114121137E4C0E01211C190007D68
:100F8000E0601320E70714F0120DBB802204F0D0BC
:100F9000E014C0E07F00120DBBE50A6007120DB23D
:100FA000150A800B300503120DB2D0E0020E0DD0F1
:100FB000E00480C4121119609EE50A0412098E90A3
:100FC000007DEAF0E50A2005026001042404121104
:010FD00037E9
:100FD10074FF04C0E01211C1120DBBE50A20050225
:100FE1006003120DB2D0E0B50AE87F45120DC5903D
:100FF100007DE07F2B30E7047F2DF404C0E0120D6B
:10100100D3D0E075F00A84C0F0120DBCD0E0120D0F
:10101100BC020E0D791080027908C206C208800850
:10102100D2D5790A8004790AC2D5E50A047002F59D
:101031000AE4FAFDFEFF120D90FC7B082001131259
:101041000D90FD7B1030000A120D90FE120D90FFE5
:101051007B20EC3382D592D55013C3E43000069F38
:10106100FFE49EFEE42001039DFDE49CFCE4CBF83B
:10107100C201EC700CCFCECDCCE824F8F870F3802F
:1010810017C3EF33FFEE33FEED33FDEC33FCEB33EF
:10109100FB994002FB0FD8E9EB300105F8D0E0C421
:1010A10048B201C0E00AEC4D4E4F78207B0070C27F
:1010B100EAB50A0040BCC0E0121139D0F0D0E020FE
:1010C1000104C4C0E0C4B201C0F0120DBCD0F0D51F
:1010D100F0EB020E0D120D6A0EAA531015580E7B7D
:1010E1004C0E774210194F1021441021490E9043A4
:1010F1001027550F54460FB4450F1E4711F4500EDB
:101101007F2D0E832E0EA62B0E87230EA42011DD1C
:101111002A0E3F4800000E9EE50AB4FF03750A0639
:10112100120D90FC120D90FD120D90FE120D90FF0C
:101131009000760209CB790AA2D520031430050963
:10114100B910020404B9080104A2D5200602500115
:10115100042002689202B509005034C0E07F2030BB
:1011610003197F30A20272067205500F121190C24C
:1011710002C206C205C2087F30800F300503E9C0F4
:10118100E0120DD3300503D0E0F9D0E0B509CC3041
:1011910005177F30B9100C120DD37F583004077F2B
:1011A100788003B90803120DD33002057F2D020D9B
:1011B100D37F202008F87F2B2006F322920280CFD4
:1011C1007F00B40700500B2476F582E43400F583E8
:1011D100E0FF22286E756C6C2900D201120D90304F
:1011E10001F8C201780930D50108F6020E3F2D50F1
:1011F100434958120D902403B405004001E49011B5
:10120100EF93120DC4743A120DC4D203750904028E
:021211001015B6
:10094400E9D2E7C933E833F892D5EDD2E7CD33ECF9
:0709540033FC5002B2D52272
:10095B00EC30E7100FBF000C0EBE00080DBD0004FD
:10096B000BEB6014A2D5EB13FCED92E7FD2274FFA9
:10097B00FCFDFEFF22E480F8A2D574FF13FC7D8002
:03098B00E480EF16
:10098E00F920E73624F950037907E4F42402FBE555
:10099E0082158270021583DBF6E024FB501BE960A2
:1009AE0014E4F0E582158270021583E004F0B40AB7
:0D09BE0008E4F0D9EE7401F00A22C2D5223F
:1009CB00ED33EC3392D5FA602AB4FF33EDC2E77BFB
:1009DB00FF60067A0979F0E4227A0979F920D504C7
:1009EB007A0979F4224E614E002B494E46002D496F
:1009FB004E4600E47A08F0A3DAFC7B00740722C0B1
:100A0B0083C082ECC0E0EDC0E0EEC0E0EFC0E0EAF6
:100A1B0075F010A4CAABF075F04DA42BFBE435F0C8
:100A2B00FCEA2410FAEB34C5FBEC34D9FCEDC2E73D
:100A3B00FF75F056A4F42411C5F0F434C58FF0A45F
:100A4B002AE5F03BE43CF020E714120C98D0E0FFD1
:100A5B00D0E0FED0E0FDD0E0FC120BCB8014F40410
:100A6B00120C98D0E0FFD0E0FED0E0FDD0E0FC12FD
:100A7B000800D082D083E0FAEDD2E7CD33EC3324FB
:100A8B0082FBE4C3CF33CFCE33CECD33CD33DBF3C9
:100A9B007B0775F00A846004F0A31B0AE5F0F0A352
:100AAB008FF0740AA4FFACF08EF0740AA42CFEAC89
:100ABB00F050010C8DF0740AA42CFDE435F0F0A37A
:050ACB00DBDE740722D0
:100AD000020979E86480F8E933E83360110460F0D2
:100AE000ED33EC337009E8FCE9FDEAFEEBFF22048C
:100AF00060DED3EB9FEA9EE99DE8C2E78CF0C2F787
:100B000095F0400CE8CCF8E9CDF9EACEFAEBCFFB52
:100B100012094485D0F05804700320D5B3E804705E
:100B2000075002B2D502098392D5EC0460F7E4CCF9
:100B3000C0E0C398F8603B94186008400DD0E0FB1B
:100B400002095BE4FBFAC9FC8028E830E406E4C94A
:100B5000FBE4CAFCE830E305E4C9CACBFCE854076F
:100B60006010F8C3E913F9EA13FAEB13FBEC13FC7A
:100B7000D8F130F52FC3E49CFCEF9BFFEE9AFEED1D
:100B800099FDD0E0FBEF4E4D4C701222DB030209C1
:100B900080EC2CFCEF33FFEE33FEED33FDED30E760
:100BA000EB02095BEF2BFFEE3AFEED39FDD0E0FBE7
:100BB00050130BBB0003020983ED13FDEE13FEEF90
:080BC00013FFEC13FC02095BBA
:100BC800020983EC5D046005E859047003020979A1
:100BD800120944580460F6EC4860F2EC7004FDFE1B
:100BE800FF22C860DB2481C85009C3986002500600
:100BF8000209809850CAF582E9294B4A7005AB82F0
:100C080002096F75F0007C1A7880C3EF9BEE9AEDAD
:100C180099400DC3EF9BFFEE9AFEED99FDE842F077
:100C2800DC23ACF0D0E0FFD0E0FED0E0FDAB8220CA
:100C3800E7101BEB60BAEC2CFCEF33FFEE33FEED54
:100C480033FD02095BE803F830E705C0F075F000F2
:100C5800EF2FFFEE33FEED33FD40B830E7C280AA38
:100C68003F8000004120000042C80000447A000094
:100C7800461C400047C35000497424004B18968016
:100C88004CBEBC205A0E1BCA6753C21C749DC5AE0D
:100C9800FB60065407601C2323120CC6EB54386013
:100CA80009120CB2120CC1120800ECF8EDF9EEFAB8
:100CB800EFCB22EB120CC180F1543803241C900CAA
:100CC80068FE93FC0EEE93FD0EEE930ECE93FF227C
:03000000021213D6
:0C121300787FE4F6D8FD75812102125AA4
:100CD800BB010689828A83E0225002E722BBFE021A
:090CE800E32289828A83E493224D
:100CF100BB010CE58229F582E5833AF583E02250B8
:100D010006E92582F8E622BBFE06E92582F8E22201
:0D0D1100E58229F582E5833AF583E493221B
:100D1E00BB010689828A83F0225002F722BBFE01B4
:020D2E00F322AE
:0E0D3000C3E49FFFE49EFEE49DFDE49CFC22D4
:0C0D3E00ECF0A3EDF0A3EEF0A3EFF02228
:100D4A00F8E0FBA3A3E0F925F0F0E5821582700232
:070D5A001583E0FA38F022D6
:090D6100EBF0A3EAF0A3E9F02293
:100D6A00D083D082F8E4937012740193700DA3A318
:100D7A0093F8740193F5828883E47374029368602C
:060D8A00EFA3A3A380DF2C
:1014C000EFB40A07740D1214CB740A309811A8995E
:1014D000B8130CC2983098FDA899C298B811F6308C
:0714E00099FDC299F5992264
:10121F0002129FE493A3F8E493A34003F68001F234
:10122F0008DFF48029E493A3F85407240CC8C333D0
:10123F00C4540F4420C8834004F456800146F6DF9F
:10124F00E4800B01020408102040809013A8E47E74
:10125F00019360BCA3FF543F30E509541FFEE49394
:10126F00A360010ECF54C025E060A840B8E493A35B
:10127F00FAE493A3F8E493A3C8C582C8CAC583CA86
:10128F00F0A3C8C582C8CAC583CADFE9DEE780BE3E
:0113EC000000
:00000001FF
