:100BED004B6579507265737365643A003F065B4FD0
:060BFD00666D7D077F6FAD
:100A990010483738392F3435362A3132332D7330EF
:020AA9003D2BE3
:100B6C00E4FFFEE4FDFCEF25E025E0245A2DF8E43B
:100B7C00F60DBD00010CED64044C70EA0FBF0001D2
:070B8C000EEF64044E70DC63
:010B9300223F
:020B1A008F6DDD
:100B1C00786E7C007D007BFF7A0B79F97E007F0A72
:100B2C001208D0C282743E256DF8E6F5807FE87E0F
:060B3C0003120B9BD282A4
:010B42002290
:100BBB008F6D120C237BFF7A0B79ED120AEF7D01FF
:0A0BCB007F01120C03AF6D020C1C39
:10092300120B43120B6CE4F56AF56BAF6BA80774FB
:1009330001088002C333D8FCF4F59000E4F558F5C0
:1009430059AD59ED2404FF7E007401A80708800502
:10095300C333CE33CED8F9FFAC90ECFBEF5B701A08
:10096300E56B25E025E0245A2DF8E6FF70047601B7
:100973008015EFB401117602800DE56B25E025E0CB
:10098300245A2559F8E4F60559E5597002055864C7
:1009930004455870AC056BE56B7002056A64044549
:1009A3006A7088E4F56AF56BC3E56B9404E56A94B1
:1009B300004003020929E4F558F559AF59AE6BEE2F
:0D09C30025E025E0245A2FF8E6640270229A
:1009D000EE25E025E024482FF8E6F56CFF120BBB6E
:1009E000AF6C120B1AE56B25E025E0245A2559F867
:0209F000E4F62B
:1009F2000559E55970020558C39404E5589400401E
:0B0A0200BB056BE56B70A2056A809ECF
:100AAB00204008000A1F1F0E040000040E0E0E1F2C
:100ABB000004001F151F1F0E0A1B00000103161C4C
:100ACB0008000001030F0F0F0F03010103050909B4
:100ADB000B1B18000E151B0E0E00000E11111F1B09
:030AEB001B1B1FB3
:070B9400120C157F147E0016
:100B9B00E4FDFCC3ED9FEC9E5015E4FBFA0BBB0090
:0F0BAB00010AEB64724A70F50DBD00010C80E485
:010BBA002218
:100BD500A907ED24FF92A6D2A77F0A7E00120B9BE0
:080BE5008980120B9BC2A722BC
:070C1500C2A5E4FD020BD5AE
:070C1C00C2A57D01020BD50A
:050C23007F01020C1529
:100B43007F38120B947F04120B947F10120B947F47
:100B530008120B94E4FF120B947F0C120B94120CEB
:090B630023120B977F03020C150D
:100C0300EF7003ED8003ED24404480F56EAF6E0278
:020C13000C15BE
:060AEF008B6E8A6F897016
:100AF500E4F571F572AB6EAA6FA970857282857186
:100B0500831208F6FF600D120C1C0572E57270E584
:040B1500057180E105
:010B190022B9
:03000000020A0DE4
:0C0A0D00787FE4F6D8FD758177020A546A
:10080000E709F608DFFA8046E709F208DFFA803EDA
:1008100088828C83E709F0A3DFFA8032E309F608C7
:10082000DFFA8078E309F208DFFA807088828C832F
:10083000E309F0A3DFFA806489828A83E0A3F608E3
:10084000DFFA805889828A83E0A3F208DFFA804CBD
:1008500080D280FA80C680D4806980F28033801094
:1008600080A680EA809A80A880DA80E280CA8033FD
:1008700089828A83ECFAE493A3C8C582C8CCC58375
:10088000CCF0A3C8C582C8CCC583CCDFE9DEE78045
:100890000D89828A83E493A3F608DFF9ECFAA9F0C4
:1008A000EDFB2289828A83ECFAE0A3C8C582C8CC1A
:1008B000C583CCF0A3C8C582C8CCC583CCDFEADE33
:1008C000E880DB89828A83E493A3F208DFF980CC95
:1008D00088F0EF60010E4E60C388F0ED2402B4048E
:1008E0000050B9F582EB2402B4040050AF23234535
:0608F00082239008507302
:1008F600BB010CE58229F582E5833AF583E02250B7
:1009060006E92582F8E622BBFE06E92582F8E22200
:0D091600E58229F582E5833AF583E493221A
:100A1900020923E493A3F8E493A34003F68001F2C7
:100A290008DFF48029E493A3F85407240CC8C333DE
:100A3900C4540F4420C8834004F456800146F6DFAD
:100A4900E4800B0102040810204080900A99E47E9A
:100A5900019360BCA3FF543F30E509541FFEE493A2
:100A6900A360010ECF54C025E060A840B8E493A369
:100A7900FAE493A3F8E493A3C8C582C8CAC583CA94
:100A8900F0A3C8C582C8CAC583CADFE9DEE780BE4C
:010AEE000007
:00000001FF
