:10122D006E6F6461746100256868753A256868752C
:10123D003A2568687500253032753A253032753A91
:10124D00253032750054696D653A00253032753A96
:10125D00253032753A2530347500446174653A0095
:0713A1004200640000C109D5
:10110D001212AB12138B12137D30097C900066E026
:10111D00646E704C900064E0FEA3E02400F58274D0
:10112D00003EF583E4F0900000E0B4740B7B017A8F
:10113D000079011210758010900000E0B464097BF5
:10114D00017A007901120FDCE4900064F0A3F0FE47
:10115D007F64FD7B017A007900120EB4C20980A66E
:10116D00900066E0FF900064E0FCA3E02400F582AF
:10117D0074003CF583EFF0900065E004F07087900B
:10118D000064E004F00211137BFF7A12792D121224
:04119D006D021113BB
:0C138B00758920758DFD759850D28E225A
:0E137D003098FDC298900066E599F0D20922E2
:1010750090007C74FFF0A37412F0A37434F0A37491
:1010850001F0A37400F0A37471F0A37401F0A374CC
:1010950000F0A37473F0A37401F0A37400F0A374BB
:1010A50075F0120BEE90007C74FFF0A37412F0A3A0
:1010B5007443F0900071E0FFA3E090007FCFF0A3B0
:1010C500EFF0900073E0FFA3E0900081CFF0A3EF75
:1010D500F0900075E0FFA3E0900083CFF0A3EFF060
:1010E5007B017A007967120865E4FDFF12133E7BE8
:1010F500FF7A12795212126D7D05E4FF12133E7BC1
:08110500017A00796702126D06
:100FDC0090007C74FFF0A37412F0A37434F0A3742B
:100FEC0001F0A37400F0A37473F0A37401F0A37464
:100FFC0000F0A37475F0A37401F0A37400F0A37453
:10100C0077F0120BEE90007C74FFF0A37412F0A337
:10101C007458F0900073E0FFA3E090007FCFF0A332
:10102C00EFF0900075E0FFA3E0900081CFF0A3EF0C
:10103C00F0900077E0FFA3E0900083CFF0A3EFF0F7
:10104C007B017A007967120865E4FD7F0112133E7B
:10105C007BFF7A12796712126D7D057F0112133EA8
:09106C007B017A00796702126D24
:0712D4001213B17F147E002C
:1012DB00E4FDFCC3ED9FEC9E5015E4FBFA0BBB0049
:0F12EB00010AEB647F4A70F50DBD00010C80E431
:0112FA0022D1
:10132200A907ED24FF92A6D2A77F0A7E001212DB44
:0C133200AF018F807F0A1212DBC2A722DD
:0713B100C2A5E4FD021322B6
:0713B800C2A57D0102132212
:0513BF007F010213B1E3
:1012AB007F381212D47F041212D47F101212D47F03
:1012BB00081212D4E4FF1212D47F0C1212D41213A0
:0912CB00BF1212D77F030213B118
:10133E00EF7003ED8003ED24404480900079F0902F
:07134E000079E0FF0213B17A
:0B126D00900079EBF0A3EAF0A3E9F099
:10127800E4A3F0A3F0900079E0FBA3E0FAA3E0F97F
:10128800A3E0FEA3E0F5828E83120E87FF6013129F
:1012980013B890007DE004F070DB90007CE004F06F
:0212A80080D3F1
:0112AA002221
:030000000211A149
:0C11A100787FE4F6D8FD7581210211E88A
:100E8700BB010CE58229F582E5833AF583E0225020
:100E970006E92582F8E622BBFE06E92582F8E2226A
:0D0EA700E58229F582E5833AF583E4932284
:10080000E508247CF582E43400F583E005082290B5
:10081000007930070390007CE475F001120F5B0251
:100820000EE02000E97F2ED2008018EF540F2490B4
:10083000D43440D4FF30040BEF24BFB41A0050036B
:100840002461FFE50960021509050CE50C7002053D
:100850000B30070E900079E475F001120F5BEF0288
:100860000EF90212FB7403D2078003E4C207F508F5
:10087000900079120F89E4F509F50BF50CE5096094
:10088000077F2012084380F5750AFFC201C200C22B
:1008900002C203C205C206C20812080FFF700D3063
:1008A00007057F00120854AF0CAE0B22B4255FC2BF
:1008B000D5C20412080FFF24D0B40A00501A75F0F4
:1008C0000A780930D50508B6FF0106C6A426F62029
:1008D000D5047002D20380D924CFB41A00EF50049B
:1008E000C2E5D204020A55D20180C6D20080C0D22D
:1008F0000280BCD2D580BAD20580B47F20120843D2
:100900002002077401B5090040F1120800FF120827
:100910004302087DD208D2068095120800FB120817
:1009200000FA120800F94A4B700679267A0B7BFF11
:1009300020022EE509602A7E008E82758300120E49
:100940008760060EEE650A70F0C2D5EBC0E0EAC023
:10095000E0E9C0E0EE120A9CD0E0F9D0E0FAD0E085
:10096000FB120EE0FF60AAEBC0E0EAC0E0E9C0E0E5
:10097000120843D0E02401F9D0E03400FAD0E0FBC3
:10098000E50A0460DCD50AD980877BFF7A0A79986A
:10099000D202809C791080027908C206C2088008C1
:1009A000D2D5790A8004790AC2D5E50A047002F525
:1009B0000AE4FAFDFEFF120800FC7B082001131276
:1009C0000800FD7B1030000A120800FE120800FF2C
:1009D0007B20EC3382D592D55013C3E43000069FC0
:1009E000FFE49EFEE42001039DFDE49CFCE4CBF8C3
:1009F000C201EC700CCFCECDCCE824F8F870F380B7
:100A000017C3EF33FFEE33FEED33FDEC33FCEB3376
:100A1000FB994002FB0FD8E9EB300105F8D0E0C4A8
:100A200048B201C0E00AEC4D4E4F78207B0070C206
:100A3000EAB50A0040BCC0E0120A9ED0F0D0E02027
:100A40000104C4C0E0C4B201C0F012082CD0F0D53B
:100A5000F0EB02087D120F92091A5309945808EB23
:100A60004C08E74209984F09A04409A049090043EE
:080A700009A655098A46098A0E
:100A780045098A470B465008EF2D08F32E09162B17
:100A880008F7230914200B2F2A08AF480000090E85
:100A98003F3F3F00790AA2D5200314300509B91059
:100AA800020404B9080104A2D5200602500104205A
:100AB80002689202B509005034C0E07F2030031963
:100AC8007F30A20272067205500F120AF5C202C2E6
:100AD80006C205C2087F30800F300503E9C0E01266
:100AE8000843300503D0E0F9D0E0B509CC3005174C
:100AF8007F30B9100C1208437F583004077F788084
:100B080003B908031208433002057F2D0208437F0A
:100B1800202008F87F2B2006F322920280CF286E2F
:100B2800756C6C2900D2011208003001F8C20178F6
:100B38000930D50108F60208AF2D5043495812086C
:100B4800002403B405004001E4900B4193120834DB
:0D0B5800743A120834D2037509040209949E
:100B6500E50830030104F82328247CF582E43400E9
:100B7500F5832290007930030390007CE475F00141
:100B8500120F5B020EE060EAC50C7002150B14C56E
:100B95000C200304FF0213A990007974FFF5F002FD
:100BA5000F72FF021369E5096006D509037F00226C
:100BB50020030F121355EF6008050CE50C700205B4
:100BC5000B22900079120F52120EE0FF60E89000A0
:100BD50079E475F001120F5B80DC120BB5EFC0E014
:100BE500120BA7D0E040F3809DD2038002C2039090
:100BF5000079120F89E4F50AF508F50BF50C75096E
:100C050000C202C200C201C204120B78FF7005AF18
:100C15000A7E0022B42530120B78FF24D0B40A00D6
:100C2500500C75F00AC509A42509F50980E924CFFA
:100C3500B41A00EF5002C2E5020E53D20180D8D299
:100C45000080D4D20480D0EF120BA75008120BDF1E
:100C5500EF600E80A9EFC0E0120BB5D0E06F609E8B
:100C6500EF6074120B8B80A7120BB5EF6069E50975
:100C7500700705098003120BB5EF601420040E12EE
:100C85000B65E475F001120F5BEF120EF9D509E65D
:100C95002004040508050A80BA120BABEFC0E01268
:100CA5000BA7D0E05004120B8BE4FF20040E120BAF
:100CB50065E475F001120F5BEF120EF9EF70DA20A3
:100CC50004040508050A808BE50960020509120B75
:100CD500DF120BABEF70C6300304E4120B8BE50A91
:100CE5006003020C147EFF7FFF2220041174FFFCB9
:100CF500FDFEFF120B65120F52120F380508020C8C
:100D050003D0E080D27900800A79108006790880C6
:100D150002790AD205E50960020509E9C0E0120B6E
:100D2500DFEF60DD120BB5BF2D04D2028003BF2BB0
:100D350009120BDFEF60CA120BABD0E0B40A0280D8
:100D450033B40802802EBF302770027408C205C074
:100D5500E0120BABD0E0BF78028003BF581605093F
:100D6500D509028007D50904D205800B74108019B6
:100D75007002740ABF000AEFF8E4FCFDFEFF020EE4
:100D850006C0E0EF120B8BD0E0F9E4FCFDFEFFE9B5
:100D9500C0E0ECC0E0EDC0E0EEC0E0EFC0E0120B5B
:100DA500ABEFF8D0E0FFD0E0FED0E0FDD0E0FCD026
:100DB500F0E8604DB461004007B47B005002C2E525
:100DC50024D0503DFA24F6500724F95034240AFA69
:100DD500EAB5F000502BCFA9F0A42FFF92D5E9C5B5
:100DE500F0CEA4A2D53EFE92D5E9C5F0CDA4A2D5FC
:100DF5003DFD92D5E9C5F0CCA4A2D53CFCC2058049
:060E05008EE8C0E02004AD
:100E0B002A200508050A300203120F2A120B65125D
:100E1B000F52050820000B20010DEE8FF0120F0B67
:100E2B008009120F388004EF120EF9D0E0120B8BF1
:100E3B00020C03200410120B65120F520508E50B70
:100E4B00850CF0120F0B80E8120F920CCD530D0E88
:100E5B00580C444C0C40420C1C480D124F0D1644C0
:100E6B000C6D430D0A490D16550CEF460CEF450C56
:0C0E7B00EF470C482A0E3E4E00000C4CC5
:100EB400EF4E6012EF60010EEDBB010B89828A8355
:100EC400F0A3DFFCDEFA2289F05007F709DFFCA962
:0C0ED400F022BBFEFCF309DFFCA9F022B9
:1011AD0002110DE493A3F8E493A34003F68001F23A
:1011BD0008DFF48029E493A3F85407240CC8C33343
:1011CD00C4540F4420C8834004F456800146F6DF12
:1011DD00E4800B01020408102040809013A1E47EEE
:1011ED00019360BCA3FF543F30E509541FFEE49307
:1011FD00A360010ECF54C025E060A840B8E493A3CE
:10120D00FAE493A3F8E493A3C8C582C8CAC583CAF8
:10121D00F0A3C8C582C8CAC583CADFE9DEE780BEB0
:0113A8000044
:100EE000BB010689828A83E0225002E722BBFE0210
:090EF000E32289828A83E4932243
:100EF900BB010689828A83F0225002F722BBFE01D8
:020F0900F322D1
:100F0B00BB010A89828A83F0E5F0A3F0225006F731
:0F0F1B0009A7F01922BBFE06F3E5F009F319222E
:0E0F2A00C3E49FFFE49EFEE49DFDE49CFC22D8
:100F3800BB010789828A83020FC45005E9F8020FB2
:0A0F4800B8BBFE05E9F8020FD02245
:090F5200E0FBA3E0FAA3E0F922A0
:100F5B00F8E0FBA3A3E0F925F0F0E582158270021F
:070F6B001583E0FA38F022C3
:100F7200F8E0FBA3A3E025F0F9F0E5821582700208
:070F82001583E038FAF022AC
:090F8900EBF0A3EAF0A3E9F02269
:100F9200D083D082F8E4937012740193700DA3A3EE
:100FA20093F8740193F5828883E473740293686002
:060FB200EFA3A3A380DF02
:1012FB00EFB40A07740D121306740A309811A899EB
:10130B00B8130CC2983098FDA899C298B811F63052
:07131B0099FDC299F599222A
:10135500100A0B121397BF0D027F0A0212FB9000B1
:04136500A7E0FF22DC
:0813A9009000A7EFF0D20A2228
:10136900EFC394094005EF940E4004EFB42003D372
:041379008001C3220A
:0C0FB800ECF608EDF608EEF608EFF62265
:0C0FC400ECF0A3EDF0A3EEF0A3EFF022A0
:0C0FD000ECF208EDF208EEF208EFF2225D
:0A1397003098FDAF99C2987E002245
:00000001FF
