:1008DF00253032753A253032753A2530327500544D
:0508EF00696D653A008F
:100368001207B812092F7B017A007D037F0B7E00EC
:100378001204B37E007F007C007D017A007B0212AC
:10038800062F900000E0FFC4540F75F00AA4FEEF9A
:10039800540F2EFF900029F0900001E0FEC4540F86
:1003A80075F00AA4FDEE540F2DFE900028F0900081
:1003B80002E0FDC4540F75F00AA4FCED540F2CFDA7
:1003C800900027F090003374FFF0A37408F0A37432
:1003D800DFF0A3EFF0A3EEF0A3EDF07B017A007954
:1003E80006120068E4FDFF1208C87BFF7A0879EE60
:1003F80012070E7D05E4FF1208C87B017A00790612
:0D04080012070E7FE87E031207E802037B57
:07092F00D2B5D2B4C2B6221A
:09091D00300103D2B422C2B4225D
:09092600D2B60000C2B6000022A6
:02078500AD07BE
:10078700E4FBC2B67E007401A803088005C333CE1C
:1007970033CED8F9FFEDF582EF558224FF9200A200
:1007A70000920112091D120926D2B60BEBB408D22A
:0107B700221F
:1008F400AC05D2B5C2B6120785AF04120785D2B5CE
:03090400D2B62246
:04074C00AB07AA0647
:10075000900000D2B6AF827E007401A80708800521
:10076000C333CE33CED8F9FFEE5AFEEF5BFF4E24F3
:10077000FF920112091D120926C2B6A3E582640880
:04078000458370CF6E
:010784002252
:0405CF00AD07AC06C2
:1005D300E4900033F0A3F0D2B5D2B612074CAF05C6
:1005E3001207857FFF120785E4FDFC900033E0C30B
:1005F30013F0A3E013F030B40C900033E0F0A3E069
:100603004480F0800AE4900033F0A3E0547FF012BA
:1006130009260DBD00010CED64084C70CED2B5C2A5
:0B062300B6C2B4900033E0FEA3E0FF7D
:01062E0022A9
:1004B30090002EEAF0A3EBF090002AEEF0A3EFF009
:1004C300A3ECF0A3EDF090003374FFF0A37408F0F5
:1004D300A374DFF0A3EEF0A3EFF0A3ECF0A3EDF031
:1004E30090002EE0FFA3E090003ACFF0A3EFF07B63
:1004F300017A0079A1120068E4FD7F011208C87B2C
:10050300FF7A0879EE12070E7D057F011208C87B7A
:10051300017A0079A112070EE4FD7F8E1208F49090
:10052300002EA3E0FD7F801208F490002CA3E0FDD1
:100533007F821208F490002AA3E0FD7F840208F46E
:10062F0090002AEBF0A3EAF0A3E9F07F807E00129E
:10063F0005CF900030E0FBA3E0FAA3E0F9EF12043E
:10064F00427F827E001205CF90002DE0FBA3E0FADF
:10065F00A3E0F9EF1204427F847E001205CF9000D1
:0D066F002AE0FBA3E0FAA3E0F9EF02044249
:10082F009000AAECF0A3EDF0A3EAF0A3EBF012080E
:10083F00F49000AAA3E0FF1208F49000ACA3E0FF2D
:03084F000208F4A8
:10067C00900098EBF0A3EAF0A3E9F07F867E0012DD
:10068C0005CF900098E0FBA3E0FAA3E0F9EF120489
:10069C00427F887E001205CF90009BE0FBA3E0FA1E
:1006AC00A3E0F9EF1204427F8C7E001205CF90007C
:0D06BC009EE0FBA3E0FAA3E0F9EF02044288
:1006C90060400058000A1F1F0E040000040E0E0EA1
:1006D9001F0004001F151F1F0E0A1B00000103162F
:1006E9001C08000001030F0F0F0F03010103050987
:1006F900090B1B18000E151B0E0E00000E11111F01
:040709001B1B1B1F7C
:0707E1001209367F147E00AF
:1007E800E4FDFCC3ED9FEC9E5015E4FBFA0BBB0047
:0F07F800010AEB647F4A70F50DBD00010C80E42F
:0108070022CE
:10087500A907ED24FF92A6D2A77F0A7E001207E8FA
:0C088500AF018F807F0A1207E8C2A72293
:07093600C2A5E4FD020875F3
:07093D00C2A57D010208754F
:050944007F01020936ED
:1007B8007F381207E17F041207E17F101207E17FFB
:1007C800081207E1E4FF1207E17F0C1207E11209A2
:0907D800441207E47F0302093614
:1008C800EF7003ED8003ED24404480900030F090F9
:0708D8000030E0FF020936C9
:0B070E00900030EBF0A3EAF0A3E9F04C
:10071900E4A3F0A3F0900030E0FBA3E0FAA3E0F932
:10072900A3E0FEA3E0F5828E83120415FF60131285
:10073900093D900034E004F070DB900033E004F0F0
:0207490080D35B
:01074B00228B
:0C090700D2B500D2B400C2B500C2B422C8
:0A091300C2B500D2B400D2B5002234
:10089100E4FEEF30E704D2B58002C2B500D2B40065
:0B08A100C2B4EF25E0FF0EEEB408E744
:0108AC002229
:1008AD00E4FFD2B5FE00D2B400EF25E0FF30B50372
:0A08BD004401FFC2B40EEEB408EBD4
:0108C700220E
:10085200E4FFD2B5FE00D2B400EF25E0FF30B503CD
:100862004401FFC2B40EEEB408EBC2B500D2B4002C
:02087200C2B40E
:010874002261
:03000000020543B3
:0C054300787FE4F6D8FD75812102058A5E
:10041500BB010CE58229F582E5833AF583E022509C
:1004250006E92582F8E622BBFE06E92582F8E222E6
:0D043500E58229F582E5833AF583E4932200
:10044200BB010689828A83F0225002F722BBFE0199
:02045200F32293
:10000300E5082433F582E43400F583E00508229003
:100013000030300703900033E475F00112046D02E1
:1000230004542000E97F2ED2008018EF540F24904F
:10003300D43440D4FF30040BEF24BFB41A00500370
:100043002461FFE50960021509050CE50C70020542
:100053000B30070E900030E475F00112046DEF02CF
:1000630004420208087403D2078003E4C207F508B8
:10007300900030120484E4F509F50BF50CE50960F2
:10008300077F2012004680F5750AFFC201C200C235
:1000930002C203C205C206C208120012FF700D306D
:1000A30007057F00120057AF0CAE0B22B4255FC2C9
:1000B300D5C204120012FF24D0B40A00501A75F0FE
:1000C3000A780930D50508B6FF0106C6A426F6202E
:1000D300D5047002D20380D924CFB41A00EF5004A0
:1000E300C2E5D204020258D20180C6D20080C0D237
:1000F3000280BCD2D580BAD20580B47F20120046DC
:100103002002077401B5090040F1120003FF120039
:1001130046020080D208D2068095120003FB12002B
:1001230003FA120003F94A4B700679297A037BFF1D
:1001330020022EE509602A7E008E82758300120458
:100143001560060EEE650A70F0C2D5EBC0E0EAC09A
:10015300E0E9C0E0EE12029FD0E0F9D0E0FAD0E08F
:10016300FB120454FF60AAEBC0E0EAC0E0E9C0E080
:10017300120046D0E02401F9D0E03400FAD0E0FBCD
:10018300E50A0460DCD50AD980877BFF7A02799B74
:10019300D202809C791080027908C206C2088008C6
:1001A300D2D5790A8004790AC2D5E50A047002F52A
:1001B3000AE4FAFDFEFF120003FC7B082001131280
:1001C3000003FD7B1030000A120003FE120003FF40
:1001D3007B20EC3382D592D55013C3E43000069FC5
:1001E300FFE49EFEE42001039DFDE49CFCE4CBF8C8
:1001F300C201EC700CCFCECDCCE824F8F870F380BC
:1002030017C3EF33FFEE33FEED33FDEC33FCEB337B
:10021300FB994002FB0FD8E9EB300105F8D0E0C4AD
:1002230048B201C0E00AEC4D4E4F78207B0070C20B
:10023300EAB50A0040BCC0E01202A1D0F0D0E02031
:100243000104C4C0E0C4B201C0F012002FD0F0D545
:10025300F0EB02008012048D011D5301975800EE4C
:100263004C00EA42019B4F01A34401A3490103430C
:0802730001A955018D46018D22
:10027B0045018D4703495000F22D00F62E01192B35
:10028B0000FA2301172003322A00B24800000111A3
:10029B003F3F3F00790AA2D5200314300509B9105E
:1002AB00020404B9080104A2D5200602500104205F
:1002BB0002689202B509005034C0E07F2030031968
:1002CB007F30A20272067205500F1202F8C202C2F0
:1002DB0006C205C2087F30800F300503E9C0E0126B
:1002EB000046300503D0E0F9D0E0B509CC30051756
:1002FB007F30B9100C1200467F583004077F78808E
:10030B0003B908031200463002057F2D0200467F19
:10031B00202008F87F2B2006F322920280CF286E34
:10032B00756C6C2900D2011200033001F8C2017800
:10033B000930D50108F60200B22D5043495812007E
:10034B00032403B405004001E490034493120037E7
:0D035B00743A120037D203750904020197AD
:10054F00020368E493A3F8E493A34003F68001F257
:10055F0008DFF48029E493A3F85407240CC8C333AD
:10056F00C4540F4420C8834004F456800146F6DF7C
:10057F00E4800B01020408102040809006C9E47E3D
:10058F00019360BCA3FF543F30E509541FFEE49371
:10059F00A360010ECF54C025E060A840B8E493A338
:1005AF00FAE493A3F8E493A3C8C582C8CAC583CA63
:1005BF00F0A3C8C582C8CAC583CADFE9DEE780BE1B
:01070D0000EB
:10045400BB010689828A83E0225002E722BBFE02A6
:09046400E32289828A83E49322D9
:10046D00F8E0FBA3A3E0F925F0F0E5821582700218
:07047D001583E0FA38F022BC
:09048400EBF0A3EAF0A3E9F02279
:10048D00D083D082F8E4937012740193700DA3A3FE
:10049D0093F8740193F5828883E473740293686012
:0604AD00EFA3A3A380DF12
:10080800EFB40A07740D120813740A309811A899E6
:10081800B8130CC2983098FDA899C298B811F63050
:0708280099FDC299F5992228
:00000001FF
