:040F5C0041011B0034
:1013720090011BE014600C14600E2402700D120C1C
:10138200888008120E0080031211E9120B09EFB4D3
:1013920043DE90011BE02401FFE433FE7C007D0369
:0E13A20012057CEDF07FC87E0012155180C24E
:100F6000604000D5000A1F1F0E040000040E0E0E84
:100F70001F0004001F151F1F0E0A1B00000103168F
:100F80001C08000001030F0F0F0F030101030509E7
:100F9000090B1B18000E151B0E0E00000E11111F61
:040FA0001B1B1B1FDD
:07154A001216777F147E00EA
:10155100E4FDFCC3ED9FEC9E5015E4FBFA0BBB00D0
:0F156100010AEB64724A70F50DBD00010C80E4C5
:011570002258
:1015F900A907ED24FF92A6D2A77F0A7E00121551F2
:0C160900AF018F807F0A121551C2A7228A
:07167700C2A5E4FD0215F914
:07167E00C2A57D010215F970
:05168C007F010216774A
:1014F9007F3812154A7F0412154A7F1012154A7F48
:101509000812154AE4FF12154A7F0C12154A1216E1
:091519008C12154D7F03021677B8
:10162D00EF7003ED8003ED244044809000A5F09011
:07163D0000A5E0FF02167793
:0B13B0009000A5EBF0A3EAF0A3E9F029
:1013BB00E4A3F0A3F09000A5E0FBA3E0FAA3E0F90F
:1013CB00A3E0FEA3E0F5828E8312052BFF601312C0
:1013DB00167E9000A9E004F070DB9000A8E004F00A
:0213EB0080D3AD
:0113ED0022DD
:10164400252E32660074656D70726574757265005E
:1011E9001214F91212489000781206349000A8746B
:1011F900FFF0A37416F0A37444F0900078E0FCA308
:10120900E0FDA3E0FEA3E0FF9000AB1206347B01F2
:101219007A00797C1206EBE4FDFF12162D7BFF7A2A
:101229001679491213B0E4FD7F0112162D7B017A5C
:0F12390000797C1213B07FE87E0312155180A458
:10149B00E490008AF0D2B77F08FE121654C2B77FD1
:1014AB00507E00121654D2B77F0E7E00121654A235
:1014BB00B7E43390008AF07F147E0012165490002C
:0314CB008AE0FFB5
:0114CE0022FB
:1015BC0090008CEFF0C2B77F027E001216549000A0
:0F15CC008CE024FF92B7D2B77F417E0002165405
:10161500E4C2B77F0FFE121654D2B77F0F7E0012B9
:071625001654A2B7E433FFE5
:01162C00229B
:0514CF0090008AEFF01F
:1014D400E4A3F090008AE05401FF1215BC90008A46
:1014E400E0C313F0A3E004F0E0C3940840E57F04F4
:0514F4007E0002165409
:10146400E490008BF090008AF090008BE0FFC313AF
:10147400F0121615EF600E90008BE04480F07F05AB
:101484007E0012165490008AE004F0E0C3940840F1
:06149400D890008BE0FF80
:01149A00222F
:1012480012149B7FCC1214CF7F441214CF7FEE7EF2
:101258000212155112149B7FCC1214CF7FBE1214A8
:10126800CF121464900088EFF0121464900089EF94
:10127800F0FD900088E03395E0ED3395E07E027F45
:10128800017D017C02EC12010EE4FBFA7980783DC5
:031298000200034E
:0E165400EF1FAC0670011E4C60030080F322F5
:100FA4005E005A454E5445522031204E4F3D20009C
:100FB400000000000000000000000000000000002D
:100FC400005E0000454E5445522032204E4F3D20D5
:100FD400000000000000000000000000000000000D
:100FE40000005E001E4F50455241544F52203D2098
:100FF40000000000000000000000000000000000ED
:101004000000005E003C526573756C74203D200046
:1010140000000000000000000000000000000000CC
:0410240000000000C8
:100C8800E4900078F0A3F0A3F0A3F0A3F0A3F0A3FE
:100C9800F0A3F01214F9900078E0FEA3E0245AF5CE
:100CA8008274003EF583E0FF601312167E9000798F
:100CB800E004F070E1900078E004F080D9120B09AC
:100CC800900084EFF0121182900080EEF0A3EFF014
:100CD800900084E0FF12167E12168C90007CE0FED5
:100CE800A3E0241EF58274003EF583E0FF60131232
:100CF800167E90007DE004F070E190007CE004F046
:100D080080D9120B09900086EFF012167E12168C0D
:100D180090007AE0FEA3E02400F58274003EF5839B
:100D2800E0FF601312167E90007BE004F070E19003
:100D3800007AE004F080D9120B09900085EFF012D8
:100D48001182900082EEF0A3EFF0900085E0FF1290
:100D5800167E12168C90007EE0FEA3E0243CF582FD
:100D680074003EF583E0FF601312167E90007FE06A
:100D780004F070E190007EE004F080D9900086E0F5
:100D880024D6603824FD601D24FE604A2404706463
:100D9800900080E0FEA3E0FF900083E02FFD90002C
:100DA80082E03E8014900082E0FEA3E0FFC3900042
:100DB80081E09FFD900080E09EFC8032900082E000
:100DC800FCA3E0FD900080E0FEA3E0FF12056AAC02
:100DD80006AD07EC8018900082E0FCA3E0FD9000CF
:100DE80080E0FEA3E0FF1205D1AC06AD07EC1201CE
:070DF8000E121029E4FEFFBA
:010DFF0022D1
:100B0900E4900087F0900087E0FF64307003020CE6
:100B190078EF64317003020C78EF64327003020CD1
:100B290078EF64337003020C78EF64347003020CBD
:100B390078EF64357003020C78EF64367003020CA9
:100B490078EF64377003020C78EF64387003020C95
:100B590078EF64397003020C78EF642B7003020C90
:100B690078EF642D7003020C78EF643D7003020C7A
:100B790078EF64437003020C78EF642A7003020C67
:100B890078EF642F7003020C78C290D291D292D27E
:100B990093209406209003742BF020950920900649
:100BA900900087742DF02096092090069000877494
:100BB9002AF0209709209006900087742FF0D29090
:100BC900C291D292D2932094092091069000877401
:100BD9003DF02095092091069000877433F0209606
:100BE900092091069000877436F020970920910614
:100BF9009000877439F0D290D291C292D293209406
:100C0900092092069000877430F0209509209206F9
:100C19009000877432F0209609209206900087741C
:100C290035F02097092092069000877438F0D29009
:100C3900D291D292C293209409209306900087748E
:100C490043F02095092093069000877431F020968F
:100C5900092093069000877434F0309703020B0E35
:100C6900309303020B0E9000877437F0020B0E12BB
:0E0C7900167E7FE87E03121551900087E0FF83
:010C8700224A
:10118200EF24D0B40A00505B90119875F003A4C507
:101192008325F0C583730211B60211B80211BD0294
:1011A20011C20211C70211CC0211D10211D60211D1
:1011B200DB0211E0802D7E007F01227E007F022271
:1011C2007E007F03227E007F04227E007F05227E36
:1011D200007F06227E007F07227E007F08227E009B
:0711E2007F0922E4FEFF2259
:061029009000871206345E
:10102F00E490008BF0A3F0A3F0FFFE7D207C4190B5
:10103F000087E0F8A3E0F9A3E0FAA3E0FB120003B6
:10104F0012014790008EEEF0A3EFF0900087E0FCC6
:10105F00A3E0FDA3E0FEA3E0FF120147900090EE96
:10106F00F0A3EFF0C3EE64809480501C900090E0EA
:10107F00FEA3E0FF7CFF7DFF12056A900090EEF06B
:10108F00A3EFF07F2D12167E900090E0FEA3E0FFFD
:10109F007C007D0A1205D190008CEFF06007E024F0
:1010AF0030FF12167E900090A3E0FF90008CE07549
:1010BF00F00AA4FEC3EF9E90008BF02430FF1216AF
:1010CF007E7F2E12167E90008EE0FEA3E0FF7C0046
:1010DF007D0A1205D1ED2430FF90008DF012167E9F
:0710EF007F207E4E02155127
:10159800253032753A253032753A253032750025B6
:1015A8003032753A253032753A2530347500446149
:0415B80074653A001C
:100E00001214F91216857B017A007D037C007F0B9A
:100E10007E001213EE9000A87401F0A37400F0A3FA
:100E2000747AF0A37401F0A37400F0A3747CF07BD7
:100E3000017A00797812129B9000007401F0A3747B
:100E400000F0A3747FF0A37401F0A37400F0A37406
:100E500080F07B017A00797E120000900078E0FC3F
:100E6000A3E0FDECC4F854F0C8EDC4540F4875F08D
:100E70000AA4FFED540F2F9000A4F090007AE0FC3C
:100E8000A3E0FDECC4F854F0C8EDC4540F4875F06D
:100E90000AA4FFED540F2F9000A3F090007CE0FC1B
:100EA000A3E0FDECC4F854F0C8EDC4540F4875F04D
:100EB0000AA4FFED540F2FFF9000A2F09000A87439
:100EC000FFF0A37415F0A37498F0900078E0FDA3F0
:100ED000E09000ABCDF0A3EDF090007AE0FDA3E050
:100EE0009000ADCDF0A3EDF0A3EFF07B017A007997
:100EF000811206EBE4FDFF12162D7B017A00798149
:100F00001213B09000A874FFF0A37415F0A374A797
:100F1000F090007EE09000ABF090007FE09000AC9D
:100F2000F0900080E09000ADF07B017A00798A12A9
:100F300006EBE4FD7F0112162D7BFF7A1579B612C0
:100F400013B07D057F0112162D7B017A00798A127C
:0C0F500013B07FE87E03121551020E154D
:07168500C2B5D2B4C2B622C7
:0C166200EF64014E7003D2B422C2B42227
:09166E00D2B60000C2B600002251
:04152200AD07AC065F
:10152600E4FBC2B6AF05A8037401088002C333D832
:10153600FC5FFAFF7E0012166212166ED2B60BEB35
:03154600B408DF07
:01154900227F
:0715DB00E0FCA3E0FD7E002F
:1015E2008D828C83D2B5C2B6121522AE83AF82121F
:0715F2001522D2B5D2B6228A
:04142A00AD07AC0658
:10142E00E4FBFAD2B6AF037E007401A8070880056C
:10143E00C333CE33CED8F9FFEE5CFEEF5DF5828E70
:10144E0083FF12166212166EC2B60BBB00010AEBB8
:05145E0064084A70CE95
:011463002266
:1012EE00900000D2B5D2B6121522E4FDFCE583C300
:1012FE0013F583E58213F58230B4064480F58280BF
:10130E0009758300E582547FF58212166E0DBD00BD
:10131E00010CED64084C70D5D2B5C2B6C2B4AE8322
:02132E00AF828C
:01133000229A
:1013EE009000A5EEF0A3EFF0A3ECF0A3EDF0A3EACE
:1013FE00F0A3EBF0E4FDFC7F8EFE1215E29000A947
:10140E007F801215DB9000A77F821215DB9000A55E
:0C141E00E0FCA3E0FD7F847E000215E2EC
:10129B009000A5EBF0A3EAF0A3E9F07F807E0012AB
:1012AB0012EE9000ABE0FBA3E0FAA3E0F9EE8FF0B7
:1012BB001206077F827E001212EE9000A8E0FBA3BD
:1012CB00E0FAA3E0F9EE8FF01206077F847E00129E
:1012DB0012EE9000A5E0FBA3E0FAA3E0F9EE8FF08D
:0312EB00020607F1
:10133100900115EEF0A3EFF0A3ECF0A3EDF0A3EA1A
:10134100F0A3EBF0900115E0FCA3E0FD7F8A7E00A5
:101351001215E2900117E0FCA3E0FD7F887E0012E8
:1013610015E2900119E0FCA3E0FD7F8C7E000215DF
:01137100E299
:10000300EC4D6011E8497017ED33EC3304600DE4F7
:10001300FCFFFEFD22E933E8330470F80201B3125A
:10002300017E58046009E4CC24815006285009025B
:1000330001BD2840030201BAC0E0EB4A7044B98015
:1000430006D0E0FB0201A9EF4E701CBD8008EBFF58
:10005300EAFEE9FD80EBE98DF0A4FEE5F00200EC99
:10006300E9CDF9EAFEEBFFEF89F0A4FCE5F0CE89D8
:10007300F0A42EFFE435F0CD89F0A42DFEE435F095
:100083008067EF4E7005BD80D780C3EF8BF0A4ACC3
:10009300F0EE8BF0A42CFCE435F0F8EF8AF0A42CFE
:1000A300E5F038FCE433CB8DF0A42CFCE5F03BF811
:1000B300EE8AF0A42CFCE5F038F8E433CF89F0A401
:1000C3002CFCE5F038CF3400CE89F0A42FFFE5F007
:1000D3003EFEE433C98DF0A42EFEE5F039CD8AF05F
:1000E300A42FFFE5F03EFEE43DFD33D0E0FB5007D7
:1000F3000BBB000F0201BDEC2CFCEF33FFEE33FE14
:06010300ED33FD02019541
:1001090075F020800E75F010800575F0087D007E71
:10011900007F003392D530D503120626EC33401008
:10012900EF33FFEE33FEED33FDEC33FCD5F0ED227A
:0E013900E5F0247EA2D513CC92E7CDCEFF22B6
:10014700EDD2E7CD33EC3392D524814006E4FFFEB0
:10015700FDFC22FCE4CFCECDCC24E0501174FF800F
:10016700EDC3CC13CCCD13CDCE13CECF13CF0470AC
:07017700F030D5DE02062680
:10068600E50824A8F582E43400F583E00508229005
:1006960000A53007039000A8E475F0011206400299
:1006A60005122000E97F2ED2008018EF540F249007
:1006B600D43440D4FF30040BEF24BFB41A005003E7
:1006C6002461FFE50960021509050CE50C700205B9
:1006D6000B30070E9000A5E475F001120640EF02FC
:1006E60005580215717403D2078003E4C207F508A2
:1006F6009000A5120657E4F509F50BF50CE509601F
:10070600077F201206C980F5750AFFC201C200C222
:1007160002C203C205C206C208120695FF700D305A
:1007260007057F001206DAAF0CAE0B22B4255FC2B6
:10073600D5C204120695FF24D0B40A00501A75F0EB
:100746000A780930D50508B6FF0106C6A426F620A4
:10075600D5047002D20380D924CFB41A00EF500416
:10076600C2E5D2040209CCD20180C6D20080C0D232
:100776000280BCD2D580BAD20580B47F201206C9C9
:100786002002077401B5090040F1120686FF120621
:10079600C9020703D208D2068095120686FB120606
:1007A60086FA120686F94A4B700679CA7A0A7BFFE0
:1007B60020022EE509602A7E008E827583001205CE
:1007C6002B60060EEE650A70F0C2D5EBC0E0EAC0FB
:1007D600E0E9C0E0EE120A2DD0E0F9D0E0FAD0E070
:1007E600FB120512FF60AAEBC0E0EAC0E0E9C0E038
:1007F6001206C9D0E02401F9D0E03400FAD0E0FBBB
:10080600E50A0460DCD50AD98087D20280A2120AE2
:100816000F60F7E50A7001041201C8A90A600DE528
:100826000A600914F50A120AB7EF60F3EA30E70224
:10083600F404C3995079EAF4250A0430E701E40484
:10084600F50A800D120A0F60C1EA050A250A12018F
:10085600C8EA9000D4F030E701E4250A04D50A047A
:1008660020050114120A2DE4C0E0120AB79000D444
:10087600E0601320E70714F01206B1802204F0D0DE
:10088600E014C0E07F001206B1E50A60071206A870
:10089600150A800B3005031206A8D0E0020703D024
:1008A600E00480C4120A0F609EE50A041201C89093
:1008B60000D4EAF0E50A2005026001042404120AC5
:0108C6002D04
:1008C70074FF04C0E0120AB71206B1E50A20050258
:1008D70060031206A8D0E0B50AE87F451206BB9070
:1008E70000D4E07F2B30E7047F2DF404C0E012062C
:1008F700C9D0E075F00A84C0F01206B2D0E0120643
:10090700B2020703791080027908C206C20880087C
:10091700D2D5790A8004790AC2D5E50A047002F5AE
:100927000AE4FAFDFEFF120686FC7B08200113127B
:100937000686FD7B1030000A120686FE120686FF29
:100947007B20EC3382D592D55013C3E43000069F49
:10095700FFE49EFEE42001039DFDE49CFCE4CBF84C
:10096700C201EC700CCFCECDCCE824F8F870F38040
:1009770017C3EF33FFEE33FEED33FDEC33FCEB3300
:10098700FB994002FB0FD8E9EB300105F8D0E0C432
:1009970048B201C0E00AEC4D4E4F78207B0070C290
:1009A700EAB50A0040BCC0E0120A2FD0F0D0E02020
:1009B7000104C4C0E0C4B201C0F01206B2D0F0D541
:1009C700F0EB02070312066007A053090B580771E3
:1009D7004C076D42090F4F0917440917490786430A
:1009E700091D55084A4608AA450814470AEA500748
:1009F700752D07792E079C2B077D23079A200AD38D
:100A07002A07354800000794E50AB4FF03750A066C
:100A1700120686FC120686FD120686FE120686FF61
:100A27009000CD020205790AA2D5200314300509EA
:100A3700B910020404B9080104A2D5200602500126
:100A4700042002689202B509005034C0E07F2030CC
:100A570003197F30A20272067205500F120A86C26E
:100A670002C206C205C2087F30800F300503E9C005
:100A7700E01206C9300503D0E0F9D0E0B509CC3063
:100A870005177F30B9100C1206C97F583004077F4D
:100A9700788003B908031206C93002057F2D0206C4
:100AA700C97F202008F87F2B2006F322920280CFEF
:100AB7007F00B40700500B24CDF582E43400F583A2
:100AC700E0FF22286E756C6C2900D2011206863071
:100AD70001F8C201780930D50108F60207352D5013
:100AE7004349581206862403B405004001E4900ADE
:100AF700E5931206BA743A1206BAD20375090402CC
:020B0700090BD8
:10017E00E9D2E7C933E833F892D5EDD2E7CD33ECC7
:07018E0033FC5002B2D52240
:10019500EC30E7100FBF000C0EBE00080DBD0004CB
:1001A5000BEB6014A2D5EB13FCED92E7FD2274FF77
:1001B500FCFDFEFF22E480F8A2D574FF13FC7D80D0
:0301C500E480EFE4
:1001C800F920E73624F950037907E4F42402FBE523
:1001D80082158270021583DBF6E024FB501BE96070
:1001E80014E4F0E582158270021583E004F0B40A85
:0D01F80008E4F0D9EE7401F00A22C2D5220D
:10020500ED33EC3392D5FA602AB4FF33EDC2E77BC8
:10021500FF60067A02792AE4227A02793320D5042E
:100225007A02792E224E614E002B494E46002D4909
:100235004E4600E47A08F0A3DAFC7B00740722C07E
:1002450083C082ECC0E0EDC0E0EEC0E0EFC0E0EAC4
:1002550075F010A4CAABF075F04DA42BFBE435F096
:10026500FCEA2410FAEB34C5FBEC34D9FCEDC2E70B
:10027500FF75F056A4F42411C5F0F434C58FF0A42D
:100285002AE5F03BE43CF020E7141204D2D0E0FF6D
:10029500D0E0FED0E0FDD0E0FC1204058014F404AB
:1002A5001204D2D0E0FFD0E0FED0E0FDD0E0FC1299
:1002B5000003D082D083E0FAEDD2E7CD33EC3324CE
:1002C50082FBE4C3CF33CFCE33CECD33CD33DBF397
:1002D5007B0775F00A846004F0A31B0AE5F0F0A320
:1002E5008FF0740AA4FFACF08EF0740AA42CFEAC57
:1002F500F050010C8DF0740AA42CFDE435F0F0A348
:05030500DBDE7407229D
:10030A000201B3E86480F8E933E83360110460F06D
:10031A00ED33EC337009E8FCE9FDEAFEEBFF220459
:10032A0060DED3EB9FEA9EE99DE8C2E78CF0C2F754
:10033A0095F0400CE8CCF8E9CDF9EACEFAEBCFFB20
:10034A0012017E85D0F05804700320D5B3E80470FA
:10035A00075002B2D50201BD92D5EC0460F7E4CC95
:10036A00C0E0C398F8603B94186008400DD0E0FBE9
:10037A00020195E4FBFAC9FC8028E830E406E4C9E6
:10038A00FBE4CAFCE830E305E4C9CACBFCE854073D
:10039A006010F8C3E913F9EA13FAEB13FBEC13FC48
:1003AA00D8F130F52FC3E49CFCEF9BFFEE9AFEEDEB
:1003BA0099FDD0E0FBEF4E4D4C701222DB03020197
:1003CA00BAEC2CFCEF33FFEE33FEED33FDED30E7F4
:1003DA00EB020195EF2BFFEE3AFEED39FDD0E0FB83
:1003EA0050130BBB00030201BDED13FDEE13FEEF2C
:0803FA0013FFEC13FC02019556
:100402000201BDEC5D046005E8590470030201B30A
:1004120012017E580460F6EC4860F2EC7004FDFEB6
:10042200FF22C860DB2481C85009C39860025006CD
:100432000201BA9850CAF582E9294B4A7005AB828B
:100442000201A975F0007C1A7880C3EF9BEE9AED49
:1004520099400DC3EF9BFFEE9AFEED99FDE842F045
:10046200DC23ACF0D0E0FFD0E0FED0E0FDAB822098
:10047200E7101BEB60BAEC2CFCEF33FFEE33FEED22
:1004820033FD020195E803F830E705C0F075F0008E
:10049200EF2FFFEE33FEED33FD40B830E7C280AA06
:1004A2003F8000004120000042C80000447A000062
:1004B200461C400047C35000497424004B189680E4
:1004C2004CBEBC205A0E1BCA6753C21C749DC5AEDB
:1004D200FB60065407601C2323120500EB543860AE
:1004E200091204EC1204FB120003ECF8EDF9EEFA27
:1004F200EFCB22EB1204FB80F1543803241C90044E
:10050200A2FE93FC0EEE93FD0EEE930ECE93FF220F
:030000000210F6F5
:0C10F600787FE4F6D8FD75812102113DE1
:10051200BB010689828A83E0225002E722BBFE02E7
:09052200E32289828A83E493221A
:10052B00BB010CE58229F582E5833AF583E0225085
:10053B0006E92582F8E622BBFE06E92582F8E222CF
:0D054B00E58229F582E5833AF583E49322E9
:10055800BB010689828A83F0225002F722BBFE0182
:02056800F3227C
:10056A00EF8DF0A4A8F0CF8CF0A428CE8DF0A42EA5
:02057A00FE225F
:10057C00BC000BBE0029EF8DF084FFADF022E4CC63
:10058C00F875F008EF2FFFEE33FEEC33FCEE9DEC2C
:10059C00984005FCEE9DFE0FD5F0E9E4CEFD22ED72
:1005AC00F8F5F0EE8420D21CFEADF075F008EF2FBC
:1005BC00FFED33FD4007985006D5F0F222C398FDAD
:0505CC000FD5F0EA224A
:1005D100C2D5EC30E709B2D5E4C39DFDE49CFCEE45
:1005E10030E715B2D5E4C39FFFE49EFE12057CC33C
:1005F100E49DFDE49CFC800312057C30D507C3E437
:060601009FFFE49EFE22B3
:10060700BB010A89828A83F0E5F0A3F0225006F73E
:0F06170009A7F01922BBFE06F3E5F009F319223B
:0E062600C3E49FFFE49EFEE49DFDE49CFC22E5
:0C063400ECF0A3EDF0A3EEF0A3EFF02239
:10064000F8E0FBA3A3E0F925F0F0E5821582700243
:070650001583E0FA38F022E7
:09065700EBF0A3EAF0A3E9F022A4
:10066000D083D082F8E4937012740193700DA3A329
:1006700093F8740193F5828883E47374029368603D
:06068000EFA3A3A380DF3D
:10157100EFB40A07740D12157C740A309811A899FA
:10158100B8130CC2983098FDA899C298B811F630DA
:0715910099FDC299F59922B2
:10110200021372E493A3F8E493A34003F68001F27E
:1011120008DFF48029E493A3F85407240CC8C333EE
:10112200C4540F4420C8834004F456800146F6DFBD
:10113200E4800B0102040810204080900F5CE47EE2
:10114200019360BCA3FF543F30E509541FFEE493B2
:10115200A360010ECF54C025E060A840B8E493A379
:10116200FAE493A3F8E493A3C8C582C8CAC583CAA4
:10117200F0A3C8C582C8CAC583CADFE9DEE780BE5C
:0110280000C7
:00000001FF
