:0B015700EF1FAC0670011E4C70F6227A
:10012200D2B5C2B67F017E00120157C2B57F647E8E
:0701320000120157C2B622C2
:07016200D2B4C2B0D2B122F9
:1000EE00E4F50AC2B67F01FE12008B7F01A2B7E4CF
:0B00FE00334408F50A0FBF0CF4AF0AF2
:0101090022D3
:1000AB007E80EFC454F04206ED33333354F84206EE
:1000BB00EB25E025E04206E50D25E04206E50E4284
:0300CB0006AF0677
:0100CE00220F
:1000CF00E4F50DF50E7B01FD7F021200AB8F0812D8
:0F00DF00005B1201221200EE8F0912017080F6F1
:070084001201697F147E00E8
:10008B00E4FDFCC3ED9FEC9E5015E4FBFA0BBB00AB
:0F009B00010AEB647F4A70F50DBD00010C80E493
:0100AA002233
:10010A00A907ED24FF92A6D2A77F0A7E0012008BD0
:08011A00898012008BC2A722AC
:07016900C2A5E4FD02010A3A
:07017000C2A57D0102010A96
:050177007F0102016997
:05017C007F0E02016985
:10005B007F381200847F041200847F101200847F8B
:10006B0008120084E4FF1200847F0C12008412013A
:09007B00771200877F030201697E
:10013900EF7003ED8003ED24404480F514AF140201
:0201490001694A
:060030008B0F8A108911FC
:10003600E4F512F513AB0FAA10A9118513828512E8
:1000460083120003FF600D1201700513E51370E5BE
:04005600051280E12E
:01005A002283
:0300000002014BAF
:0C014B00787FE4F6D8FD7581140200CF27
:10000300BB010CE58229F582E5833AF583E02250B2
:1000130006E92582F8E622BBFE06E92582F8E222FC
:0D002300E58229F582E5833AF583E4932216
:00000001FF
