:0D05FE0025303264005365636F6E643A006F
:08060B0002080000020A0000D1
:03000B000203F8F5
:1003F800C0E0C0F0C083C082C0D075D000C000C0CB
:1004080001C002C003C004C005C006C007050BE553
:100418000B7002050A6414450A70450509E5097060
:10042800020508D3943CE508940040067508007559
:1004380009007525FF7526057527FE850828850995
:10044800297B007A00790C12006A7D08E4FF120506
:10045800CB7B007A00790C120511750A00750B0028
:10046800C28DD007D006D005D004D003D002D00169
:0D047800D000D0D0D082D083D0F0D0E032C0
:1005EE00758901758CEF758A41D28CD2A9D2AF2252
:1005DD0012053C7BFF7A0679031205111205EE8098
:0105ED00FE0F
:070565001200037F147E0069
:10056C00E4FDFCC3ED9FEC9E5015E4FBFA0BBB00C5
:0F057C00010AEB647F4A70F50DBD00010C80E4AD
:01058B00224D
:1005B300A907ED24FF92A6D2A77F0A7E0012056C3D
:0805C300898012056CC2A72219
:07000300C2A5E4FD0205B3F4
:07061400C2A57D010205B340
:05061B007F0102000355
:050620007F0E02000343
:10053C007F381205657F041205657F101205657FF3
:10054C0008120565E4FF1205657F0C12056512069D
:09055C001B1205687F0302000375
:1005CB00EF7003ED8003ED24404480F522AF22024F
:0205DB0000031B
:060511008B368A378938A1
:10051700E4F539F53AAB36AA37A938853A828539F1
:100527008312036AFF600D120614053AE53A70E577
:04053700053980E121
:01053B00229D
:0300000002048572
:0C048500787FE4F6D8FD75813A0204CCC3
:10036A00BB010CE58229F582E5833AF583E0225048
:10037A0006E92582F8E622BBFE06E92582F8E22292
:0D038A00E58229F582E5833AF583E49322AC
:10000E00E5312425F8E605312278223007027825DD
:10001E00E475F0011203C20203972000EB7F2ED28B
:10002E00008018EF540F2490D43440D4FF30040BCA
:10003E00EF24BFB41A0050032461FFE532600215AD
:10004E00320535E5357002053430070D7822E4753A
:10005E00F0011203C2EF0203B002058C7403D20743
:10006E008003E4C207F5318B228A238924E4F5321A
:10007E00F534F535E53260077F2012004980F575BD
:10008E0033FFC201C200C202C203C205C206C208C9
:10009E00120017FF700D3007057F0012005AAF35A2
:1000AE00AE3422B4255FC2D5C204120017FF24D08D
:1000BE00B40A00501A75F00A783230D50508B6FF2A
:1000CE000106C6A426F620D5047002D20380D924D8
:1000DE00CFB41A00EF5004C2E5D20402025AD20184
:1000EE0080C6D20080C0D20280BCD2D580BAD205E2
:1000FE0080B47F201200492002077401B5320040FF
:10010E00F112000EFF120049020082D208D20680C0
:10011E009512000EFB12000EFA12000EF94A4B70E9
:10012E0006792B7A037BFF20022EE532602A7E00B1
:10013E008E8275830012036A60060EEE653370F0D0
:10014E00C2D5EBC0E0EAC0E0E9C0E0EE1202A1D0F9
:10015E00E0F9D0E0FAD0E0FB120397FF60AAEBC003
:10016E00E0EAC0E0E9C0E0120049D0E02401F9D095
:10017E00E03400FAD0E0FBE5330460DCD533D980FF
:10018E00877BFF7A02799DD202809C79108002795A
:10019E0008C206C2088008D2D5790A8004790AC23C
:1001AE00D5E533047002F533E4FAFDFEFF12000EBE
:1001BE00FC7B0820011312000EFD7B1030000A128A
:1001CE00000EFE12000EFF7B20EC3382D592D5502E
:1001DE0013C3E43000069FFFE49EFEE42001039D5E
:1001EE00FDE49CFCE4CBF8C201EC700CCFCECDCC80
:1001FE00E824F8F870F38017C3EF33FFEE33FEED0B
:10020E0033FDEC33FCEB33FB994002FB0FD8E9EBEB
:10021E00300105F8D0E0C448B201C0E00AEC4D4E02
:10022E004F78207B0070C2EAB5330040BCC0E012AC
:10023E0002A3D0F0D0E0200104C4C0E0C4B201C0DB
:10024E00F0120032D0F0D5F0EB0200821203D20190
:10025E001F5301995800F04C00EC42019D4F01A52F
:0F026E004401A54901054301AB55018F46018F9E
:10027D0045018F47034B5000F42D00F82E011B2B29
:10028D0000FC2301192003342A00B4480000011397
:10029D003F3F3F00790AA2D5200314300509B9105C
:1002AD00020404B9080104A2D5200602500104205D
:1002BD0002689202B532005034C0E07F203003193D
:1002CD007F30A20272067205500F1202FAC202C2EC
:1002DD0006C205C2087F30800F300503E9C0E01269
:1002ED000049300503D0E0F9D0E0B532CC30051728
:1002FD007F30B9100C1200497F583004077F788089
:10030D0003B908031200493002057F2D0200497F11
:10031D00202008F87F2B2006F322920280CF286E32
:10032D00756C6C2900D20112000E3001F8C20178F3
:10033D003230D50108F60200B42D50434958120051
:10034D000E2403B405004001E49003469312003AD5
:0D035D00743A12003AD2037532040201997D
:100491000205DDE493A3F8E493A34003F68001F29F
:1004A10008DFF48029E493A3F85407240CC8C3336C
:1004B100C4540F4420C8834004F456800146F6DF3B
:1004C100E4800B010204081020408090060BE47EBA
:1004D100019360BCA3FF543F30E509541FFEE49330
:1004E100A360010ECF54C025E060A840B8E493A3F7
:1004F100FAE493A3F8E493A3C8C582C8CAC583CA22
:10050100F0A3C8C582C8CAC583CADFE9DEE780BED9
:0106130000E6
:10039700BB010689828A83E0225002E722BBFE0264
:0903A700E32289828A83E4932297
:1003B000BB010689828A83F0225002F722BBFE012C
:0203C000F32226
:1003C200FAE6FB0808E6F925F0F618E6CA3AF6223C
:1003D200D083D082F8E4937012740193700DA3A3BA
:1003E20093F8740193F5828883E4737402936860CE
:0603F200EFA3A3A380DFCE
:10058C00EFB40A07740D120597740A309811A899E4
:10059C00B8130CC2983098FDA899C298B811F630CF
:0705AC0099FDC299F59922A7
:00000001FF
