:0C04330054696D653A00446174653A003C
:100315001202EC1203887B507D597F231203637B05
:10032500237D097F301203ACD2B512008FC2B512FE
:07033500016712010880F1CD
:05045700D2B6C2B6227E
:0A043F00EF4E6003D2B422C2B422D3
:04028900AD07AC060B
:10028D00E4FBFAAF037E007401A807088005C333B1
:10029D00CE33CED8F9FFEE5CFEEF5DF5828E83FF97
:1002AD0012043F1204570BBB00010AEB64084A709D
:0102BD00D26E
:0102BE00221D
:1001BF00E4900085F0A3F0FE120289E4FDFC9000AC
:1001CF0085E0C313F0A3E013F030B40C900085E08A
:1001DF00F0A3E04480F0800AE4900085F0A3E0549F
:1001EF007FF01204570DBD00010CED64084C70CE6A
:0601FF00900085A3E0FF63
:0102050022D6
:10042000A905D2B57E00120289AF017E00120289B1
:03043000C2B52230
:10008F00E4900085F0A3F0D2B57FBFFE120289E4A1
:10009F00FDFCE4900085F0A3F0FBFA900085E0C32F
:1000AF0013F0A3E013F030B40C900085E0F0A3E060
:1000BF004480F0800AE4900085F0A3E0547FF012B2
:1000CF0004570BBB00010AEB64084A70CE90008501
:1000DF00E0FAA3E0FBED25E0FFEC33FE74042FF50F
:1000EF008274003EF583EAF0A3EBF00DBD00010C26
:0800FF00ED64084C709CC2B5D1
:0101070022D5
:10038800C2B5C2B6E4FD7F8E1204207DAB7F901209
:1003980004207F811201BFEF54816007E4FD7F8054
:0303A8001204201C
:0103AB00222F
:10036300900085EFF0A3EDF0AF03AD077F8012049B
:1003730020900086E0FD7F82120420900085E0FD3E
:050383007F840204204C
:0303CF00A3E0FFA9
:1003D200900085EFF0E0C4540F2430FF12045090D7
:0B03E2000085E0540F2430FF0204509F
:10016700E4FDFF1204097BFF7A04793312024B7D09
:1001770006E4FF1204099000081203CF7F3A120425
:10018700507F0A7E001203437D09E4FF12040990A1
:1001970000061203CF7F3A1204507F0A7E00120333
:1001A700437D0CE4FF120409900004A3E0FF12034F
:0801B700D27F0A7E000203431F
:1003AC00900085EDF0A3EBF0AD077F861204209052
:1003BC000085E0FD7F88120420900086E0FD7F8C94
:0303CC0002042008
:10010800E4FD7F011204097BFF7A04793912024B5E
:100118007D067F0112040990000AA3E0FF1203D2B2
:100128007F3A1204507F0A7E001203437D097F0143
:1001380012040990000CA3E0FF1203D27F3A1204C4
:10014800507F0A7E001203437D0C7F011204099040
:0F0158000010A3E0FF1203D27F0A7E00020343D0
:1002060060400045000A1F1F0E040000040E0E0E7B
:100216001F0004001F151F1F0E0A1B0000010316F6
:100226001C08000001030F0F0F0F0301010305094E
:10023600090B1B18000E151B0E0E00000E11111FC8
:040246001B1B1B1F44
:07033C001204497F147E004A
:10034300E4FDFCC3ED9FEC9E5015E4FBFA0BBB00F0
:0F035300010AEB647F4A70F50DBD00010C80E4D8
:010362002278
:1003ED00A907ED24FF92A6D2A77F0A7E0012034330
:0C03FD00AF018F807F0A120343C2A722C9
:07044900C2A5E4FD0203ED72
:07045000C2A57D010203EDCE
:05045C007F01020449CC
:1002EC007F3812033C7F0412033C7F1012033C7FC7
:1002FC000812033CE4FF12033C7F0C12033C120473
:09030C005C12033F7F0302044967
:10040900EF7003ED8003ED24404480900085F09067
:070419000085E0FF02044929
:0B024B00900085EBF0A3EAF0A3E9F0BF
:10025600E4A3F0A3F0900085E0FBA3E0FAA3E0F9A5
:10026600A3E0FEA3E0F5828E831202BFFF601312A5
:100276000450900089E004F070DB900088E004F000
:0202860080D323
:010288002253
:03000000020003F8
:0C000300787FE4F6D8FD75810702004A02
:1002BF00BB010CE58229F582E5833AF583E02250F4
:1002CF0006E92582F8E622BBFE06E92582F8E2223E
:0D02DF00E58229F582E5833AF583E4932258
:10000F00020315E493A3F8E493A34003F68001F2EF
:10001F0008DFF48029E493A3F85407240CC8C333F2
:10002F00C4540F4420C8834004F456800146F6DFC1
:10003F00E4800B0102040810204080900206E47E49
:10004F00019360BCA3FF543F30E509541FFEE493B6
:10005F00A360010ECF54C025E060A840B8E493A37D
:10006F00FAE493A3F8E493A3C8C582C8CAC583CAA8
:10007F00F0A3C8C582C8CAC583CADFE9DEE780BE60
:01024A0000B3
:00000001FF
