:1002BB004672657175656E637900487A0045727296
:0702CB006F722E2E2E2E0093
:0602D200C1000213000050
:0B02F700758916E4F58CF58AD28C2284
:1001F900E4FDFCC3ED9FEC9E5024758DFC758B19B5
:10020900C28FD28E208F0CE58DB4FFF8E58BB4FF39
:0E021900F3D200C28FC28E0DBD00010C80D545
:0102270022B4
:10019200D2B41202537D01E4FF1202E57BFF7A0220
:1001A20079BB1202287D0A7F011202E57BFF7A02E7
:1001B20079C51202281202F77F847E031201F9C266
:1001C2008CAF8CEF75F0FFA4AEF0AD8A7C002DF5FC
:1001D20014EC3EF5137D057F011202E530000B7B26
:1001E200FF7A0279C812022880097D04AF14AE1387
:0701F200120123C20080BED0
:0C02D800020A0000020C000002080000F6
:07027C001203027F147E0053
:10028300E4FDFCC3ED9FEC9E5015E4FBFA0BBB00B1
:0F029300010AEB647F4A70F50DBD00010C80E499
:0102A2002239
:1002A300A907ED24FF92A6D2A77F0A7E001202833C
:0802B3008980120283C2A72218
:07030200C2A5E4FD0202A305
:07030900C2A57D010202A361
:050310007F0102030261
:050315007F0E0203024F
:100253007F3812027C7F0412027C7F1012027C7FA3
:100263000812027CE4FF12027C7F0C12027C120350
:090273001012027F7F0302030256
:1002E500EF7003ED8003ED24404480F50EAF0E0260
:0202F500030202
:060123008E0E8F0F8D10FF
:10012900900001750A00750B01C3E50B9510E50AEE
:10013900940050197C007D0AAF82AE831200308E84
:10014900838F82050BE50B70E0050A80DCE4F5116D
:10015900E511C395105031AE0EAF0FAD82AC8312CD
:1001690000427C007D0A1200428C088D09E50924B1
:1001790030FF1203097C007D0AAF82AE8312004270
:080189008E838F82051180C8EE
:01019100224B
:060228008B0E8A0F891005
:10022E00E4F511F512AB0EAA0FA9108512828511F5
:10023E0083120003FF600D1203090512E51270E52B
:04024E00051180E135
:010252002289
:0300000002009764
:0C009700787FE4F6D8FD7581200200DEC1
:10000300BB010CE58229F582E5833AF583E02250B2
:1000130006E92582F8E622BBFE06E92582F8E222FC
:0D002300E58229F582E5833AF583E4932216
:10003000EF8DF0A4A8F0CF8CF0A428CE8DF0A42EE4
:02004000FE229E
:10004200BC000BBE0029EF8DF084FFADF022E4CCA2
:10005200F875F008EF2FFFEE33FEEC33FCEE9DEC6B
:10006200984005FCEE9DFE0FD5F0E9E4CEFD22EDB1
:10007200F8F5F0EE8420D21CFEADF075F008EF2FFB
:10008200FFED33FD4007985006D5F0F222C398FDEC
:050092000FD5F0EA2289
:1000A300020192E493A3F8E493A34003F68001F2E0
:1000B30008DFF48029E493A3F85407240CC8C3335E
:1000C300C4540F4420C8834004F456800146F6DF2D
:1000D300E4800B01020408102040809002D2E47EE9
:1000E300019360BCA3FF543F30E509541FFEE49322
:1000F300A360010ECF54C025E060A840B8E493A3E9
:10010300FAE493A3F8E493A3C8C582C8CAC583CA13
:10011300F0A3C8C582C8CAC583CADFE9DEE780BECB
:0102E4000019
:00000001FF
