:1004450072656164696E670077726974696E6700C9
:0A0455003F065B4F666D7D077F6F69
:06031A000158000157002C
:0E04B500D2A000D2A100C2A000C2A10000226D
:0D04C300C2A00000D2A10000D2A0000022C3
:0604DE001204B50204C384
:050364001204B57FA0AA
:10036900E4FEEF30E703D38001C392A00000D2A1DD
:1003790000C2A100C2A1EF25E0FF0EBE08E4D2A091
:0603890000D2A100C2A198
:01038F00224B
:10042B00E4FFD2A0FE00D2A100EF25E0FFA2A0E4E2
:09043B00334FFFC2A10EBE08EC14
:010444002295
:10045F00AC07120364AF04120369AF0512036912EC
:09046F0004C37F0A7E000203EBC6
:02049000AD07B6
:10049200120364AF0512036912036412042B0204EF
:0104A200C396
:02040B008F4C14
:10040D00784D7C007D007BFF7A0479557E007F0A54
:0D041D001200D3C2A5744D254CF8E6F58001
:01042A0022AF
:1001F4001203BB1204DEE4FF1204908F587F011235
:1002040004908F577D01E4FF1204A37BFF7A0479E5
:1002140045120390AF581204D7AF571204D77F404A
:100224007E427D0F7C00E47B0AFAF9F8120162E455
:100234007B6D7A01F9F8120162AB07AA06A905A839
:1002440004E4FF7E5CFDFC1201628F4B8E4A8D49F3
:100254008C48AF5812040B0558AD57E4FF12045FE5
:10026400AD587F0112045FE4FD7F011204A37BFFFC
:100274007A04794D120390AF571204D7AF58120481
:0A028400D7AE4AAF4B1203EB80C85F
:10032000204008000A1F1F0E040000040E0E0E1FBE
:100330000004001F151F1F0E0A1B00000103161CDE
:1003400008000001030F0F0F0F0301010305090946
:100350000B1B18000E151B0E0E00000E11111F1B9B
:030360001B1B1F45
:0703E4001204D07F147E001B
:1003EB00E4FDFCC3ED9FEC9E5015E4FBFA0BBB0048
:0F03FB00010AEB64724A70F50DBD00010C80E43D
:01040A0022CF
:10047800A907ED24FF92A6D2A77F0A7E001203EBFC
:0804880089801203EBC2A722D8
:0704D000C2A5E4FD0204785F
:0704D700C2A57D01020478BB
:0504E4007F010204D0BD
:1003BB007F381203E47F041203E47F101203E47FFF
:1003CB00081203E4E4FF1203E47F0C1203E41204AB
:0903DB00E41203E77F030204D0E1
:1004A300EF7003ED8003ED24404480F54CAF4C0224
:0204B30004D073
:060390008B4C8A4D894EE2
:10039600E4F54FF550AB4CAA4DA94E855082854FDA
:1003A600831200F9FF600D1204D70550E55070E581
:0403B600054F80E18E
:0103BA002220
:0300000002028E6B
:0C028E00787FE4F6D8FD7581580202D597
:10000300E709F608DFFA8046E709F208DFFA803EDF
:1000130088828C83E709F0A3DFFA8032E309F608CC
:10002300DFFA8078E309F208DFFA807088828C8334
:10003300E309F0A3DFFA806489828A83E0A3F608E8
:10004300DFFA805889828A83E0A3F208DFFA804CC2
:1000530080D280FA80C680D4806980F28033801099
:1000630080A680EA809A80A880DA80E280CA803302
:1000730089828A83ECFAE493A3C8C582C8CCC5837A
:10008300CCF0A3C8C582C8CCC583CCDFE9DEE7804A
:100093000D89828A83E493A3F608DFF9ECFAA9F0C9
:1000A300EDFB2289828A83ECFAE0A3C8C582C8CC1F
:1000B300C583CCF0A3C8C582C8CCC583CCDFEADE38
:1000C300E880DB89828A83E493A3F208DFF980CC9A
:1000D30088F0EF60010E4E60C388F0ED2402B40493
:1000E3000050B9F582EB2402B4040050AF2323453A
:0600F3008223900053730C
:1000F900BB010CE58229F582E5833AF583E02250BC
:1001090006E92582F8E622BBFE06E92582F8E22205
:0D011900E58229F582E5833AF583E493221F
:1001260075F008758200EF2FFFEE33FECD33CDCC90
:1001360033CCC58233C5829BED9AEC99E582984013
:100146000CF582EE9BFEED9AFDEC99FC0FD5F0D6F0
:10015600E4CEFBE4CDFAE4CCF9A88222B800C1B91A
:100166000059BA002DEC8BF084CFCECDFCE5F0CB58
:10017600F97818EF2FFFEE33FEED33FDEC33FCEB91
:1001860033FB10D703994004EB99FB0FD8E5E4F94C
:10019600FA227818EF2FFFEE33FEED33FDEC33FC39
:1001A600C933C910D7059BE99A4007EC9BFCE99A2D
:1001B600F90FD8E0E4C9FAE4CCFB2275F010EF2F72
:1001C600FFEE33FEED33FDCC33CCC833C810D70772
:1001D6009BEC9AE899400AED9BFDEC9AFCE899F8AD
:0E01E6000FD5F0DAE4CDFBE4CCFAE4C8F92240
:10029A000201F4E493A3F8E493A34003F68001F285
:1002AA0008DFF48029E493A3F85407240CC8C33365
:1002BA00C4540F4420C8834004F456800146F6DF34
:1002CA00E4800B010204081020408090031AE47EA7
:1002DA00019360BCA3FF543F30E509541FFEE49329
:1002EA00A360010ECF54C025E060A840B8E493A3F0
:1002FA00FAE493A3F8E493A3C8C582C8CAC583CA1B
:10030A00F0A3C8C582C8CAC583CADFE9DEE780BED2
:010363000099
:00000001FF
