:0D033D006F76656E20636F6E74726F6C00DA
:1002E000051830303A3030C1001008443D304343E7
:0B02F0003938374236353441333231A3
:1000BA00E4F525C294D295D296D29720900385086A
:1000CA0025209103850925209203850A252093037B
:1000DA00850B25D294D294C295D296D297209003BA
:1000EA00850C25209103850D25209203850E252058
:1000FA009303850F25D295D294D295C296D2972092
:10010A0090038510252091038511252092038512DD
:10011A0025209303851325D296D294D295D296C2DE
:10012A009720900385142520910385152520920395
:10013A00851625209303851725D2977F647E0012A2
:07014A0002C07590FFAF2514
:01015100228B
:100314007D067F0112032B7B007A00791812026597
:070324007F647E000202C0AD
:1001DE00E51824D0FFE51924D0FEE51B24D0FDE55B
:1001EE001C24D0FCD3940040031C8029EDD3940032
:1001FE0040057C091D801EEED3940040077C097DCE
:10020E00051E8011EFD3940040097C097D057E09FF
:10021E001F8002C200EF2430F518EE2430F519EDE0
:09022E002430F51BEC2430F51C12
:0102370022A4
:10000300E4F521F522F5231202901203587D01E451
:10001300FF12032B7BFF7A03793D1202651200BAAC
:100023008F24E5246047643D6043E5246443603DD9
:10003300E524642A60370523E523B401028026E51D
:1000430023B40205851C1B801CE523B40308851B10
:1000530019851C1B800FE5236404703A85191885E4
:100063001B19851C1B85241C1203148029E524B449
:100073003D0F751830751930751B30751C30020330
:1000830014E524B44310300006C200C2A080073038
:10009300B004D200D2A03000141201DE7F0A7E0029
:1000A3001202C01203147F0A7E001202C07F647E14
:0700B300001202C002002050
:0702B90012034A7F147E00CE
:1002C000E4FDFCC3ED9FEC9E5015E4FBFA0BBB0074
:0F02D000010AEB647F4A70F50DBD00010C80E45C
:0102DF0022FC
:1002FC00A907ED24FF92A6D2A77F0A7E001202C0A6
:08030C0089801202C0C2A72281
:07034A00C2A5E4FD0202FC64
:07035100C2A57D010202FCC0
:050358007F0102034AD1
:05035D007F0E02034ABF
:100290007F381202B97F041202B97F101202B97FAF
:1002A000081202B9E4FF1202B97F0C1202B912035C
:0902B000581202BC7F0302034A4C
:10032B00EF7003ED8003ED24404480F525AF2502EB
:02033B00034A73
:060265008B258A26892783
:10026B00E4F528F529AB25AA26A927852982852817
:10027B0083120238FF600D1203510529E52970E541
:04028B00052880E1E1
:01028F00224C
:03000000020152A8
:0C015200787FE4F6D8FD75812902019940
:10023800BB010CE58229F582E5833AF583E022507B
:1002480006E92582F8E622BBFE06E92582F8E222C5
:0D025800E58229F582E5833AF583E49322DF
:10015E00020003E493A3F8E493A34003F68001F2B4
:10016E0008DFF48029E493A3F85407240CC8C333A2
:10017E00C4540F4420C8834004F456800146F6DF71
:10018E00E4800B01020408102040809002E0E47E1F
:10019E00019360BCA3FF543F30E509541FFEE49366
:1001AE00A360010ECF54C025E060A840B8E493A32D
:1001BE00FAE493A3F8E493A3C8C582C8CAC583CA58
:1001CE00F0A3C8C582C8CAC583CADFE9DEE780BE10
:0102FB000002
:00000001FF
